{"contracts/CarOwner.sol":{"CarOwner":{"abi":[{"inputs":[],"stateMutability":"nonpayable","type":"constructor"},{"inputs":[{"internalType":"string","name":"_vin","type":"string"},{"internalType":"string","name":"_offence","type":"string"},{"internalType":"uint256","name":"_fine","type":"uint256"}],"name":"add_penalty","outputs":[],"stateMutability":"nonpayable","type":"function"},{"inputs":[{"internalType":"string","name":"_vin","type":"string"}],"name":"get_my_car_info","outputs":[{"components":[{"internalType":"string","name":"manufacturer","type":"string"},{"internalType":"string","name":"model","type":"string"},{"internalType":"uint256","name":"year","type":"uint256"},{"internalType":"string","name":"fuel","type":"string"},{"internalType":"string","name":"transmission","type":"string"},{"internalType":"string","name":"color","type":"string"},{"internalType":"uint8","name":"doors","type":"uint8"},{"internalType":"string","name":"VIN","type":"string"},{"internalType":"string","name":"stock_number","type":"string"},{"internalType":"address","name":"owner_address","type":"address"},{"components":[{"internalType":"string","name":"offence","type":"string"},{"internalType":"uint256","name":"fine","type":"uint256"},{"internalType":"bool","name":"payed","type":"bool"},{"internalType":"uint256","name":"id","type":"uint256"}],"internalType":"struct CarOwner.Penalties[]","name":"myPenalties","type":"tuple[]"}],"internalType":"struct CarOwner.Car","name":"","type":"tuple"}],"stateMutability":"view","type":"function"},{"inputs":[{"internalType":"string","name":"_vin","type":"string"},{"internalType":"uint256","name":"_id","type":"uint256"}],"name":"pay_penalties","outputs":[],"stateMutability":"payable","type":"function"},{"inputs":[{"internalType":"string","name":"_manufacturer","type":"string"},{"internalType":"string","name":"_model","type":"string"},{"internalType":"uint256","name":"_year","type":"uint256"},{"internalType":"string","name":"_fuel","type":"string"},{"internalType":"string","name":"_transmission","type":"string"},{"internalType":"string","name":"_color","type":"string"},{"internalType":"uint8","name":"_doors","type":"uint8"},{"internalType":"string","name":"_VIN","type":"string"},{"internalType":"string","name":"_stock_number","type":"string"},{"internalType":"address","name":"_owner_address","type":"address"}],"name":"set_car_info","outputs":[],"stateMutability":"nonpayable","type":"function"}],"evm":{"bytecode":{"linkReferences":{},"object":"608060405234801561001057600080fd5b50336000806101000a81548173ffffffffffffffffffffffffffffffffffffffff021916908373ffffffffffffffffffffffffffffffffffffffff160217905550611c2e806100606000396000f3fe60806040526004361061003f5760003560e01c80630a45d962146100445780631cd30e4b1461006d578063342bbdd514610096578063c5320a82146100b2575b600080fd5b34801561005057600080fd5b5061006b60048036038101906100669190611019565b6100ef565b005b34801561007957600080fd5b50610094600480360381019061008f91906111bc565b61025d565b005b6100b060048036038101906100ab9190611247565b610483565b005b3480156100be57600080fd5b506100d960048036038101906100d491906112a3565b610624565b6040516100e691906115f8565b60405180910390f35b60008054906101000a900473ffffffffffffffffffffffffffffffffffffffff1673ffffffffffffffffffffffffffffffffffffffff163373ffffffffffffffffffffffffffffffffffffffff161461014757600080fd5b60006005846040516101599190611656565b90815260200160405180910390209050818160090160006101000a81548173ffffffffffffffffffffffffffffffffffffffff021916908373ffffffffffffffffffffffffffffffffffffffff1602179055508a8160000190816101bd9190611879565b50898160010190816101cf9190611879565b50888160020181905550878160030190816101ea9190611879565b50868160040190816101fc9190611879565b508581600501908161020e9190611879565b50848160060160006101000a81548160ff021916908360ff1602179055508381600701908161023d9190611879565b508281600801908161024f9190611879565b505050505050505050505050565b60008054906101000a900473ffffffffffffffffffffffffffffffffffffffff1673ffffffffffffffffffffffffffffffffffffffff163373ffffffffffffffffffffffffffffffffffffffff16146102b557600080fd5b60006005846040516102c79190611656565b90815260200160405180910390209050600073ffffffffffffffffffffffffffffffffffffffff168160090160009054906101000a900473ffffffffffffffffffffffffffffffffffffffff1673ffffffffffffffffffffffffffffffffffffffff160361036a576040517f08c379a0000000000000000000000000000000000000000000000000000000008152600401610361906119a8565b60405180910390fd5b6000600182600a018054905061038091906119f7565b9050604051806080016040528085815260200184815260200160001515815260200182815250600160008201518160000190816103bd9190611879565b506020820151816001015560408201518160020160006101000a81548160ff0219169083151502179055506060820151816003015590505081600a0160019080600181540180825580915050600190039060005260206000209060040201600090919091909150600082018160000190816104389190611a41565b50600182015481600101556002820160009054906101000a900460ff168160020160006101000a81548160ff0219169083151502179055506003820154816003015550505050505050565b60006005836040516104959190611656565b90815260200160405180910390209050600073ffffffffffffffffffffffffffffffffffffffff168160090160009054906101000a900473ffffffffffffffffffffffffffffffffffffffff1673ffffffffffffffffffffffffffffffffffffffff1603610538576040517f08c379a000000000000000000000000000000000000000000000000000000000815260040161052f906119a8565b60405180910390fd5b8060090160009054906101000a900473ffffffffffffffffffffffffffffffffffffffff1673ffffffffffffffffffffffffffffffffffffffff163373ffffffffffffffffffffffffffffffffffffffff161461059457600080fd5b80600a016001836105a59190611b29565b815481106105b6576105b5611b5d565b5b90600052602060002090600402016001015434146105d357600080fd5b600181600a016001846105e69190611b29565b815481106105f7576105f6611b5d565b5b906000526020600020906004020160020160006101000a81548160ff021916908315150217905550505050565b61062c610d7f565b600060058360405161063e9190611656565b90815260200160405180910390209050600073ffffffffffffffffffffffffffffffffffffffff168160090160009054906101000a900473ffffffffffffffffffffffffffffffffffffffff1673ffffffffffffffffffffffffffffffffffffffff16036106e1576040517f08c379a00000000000000000000000000000000000000000000000000000000081526004016106d8906119a8565b60405180910390fd5b8060090160009054906101000a900473ffffffffffffffffffffffffffffffffffffffff1673ffffffffffffffffffffffffffffffffffffffff163373ffffffffffffffffffffffffffffffffffffffff16148061078a575060008054906101000a900473ffffffffffffffffffffffffffffffffffffffff1673ffffffffffffffffffffffffffffffffffffffff163373ffffffffffffffffffffffffffffffffffffffff16145b15610d3f5780604051806101600160405290816000820180546107ac9061169c565b80601f01602080910402602001604051908101604052809291908181526020018280546107d89061169c565b80156108255780601f106107fa57610100808354040283529160200191610825565b820191906000526020600020905b81548152906001019060200180831161080857829003601f168201915b5050505050815260200160018201805461083e9061169c565b80601f016020809104026020016040519081016040528092919081815260200182805461086a9061169c565b80156108b75780601f1061088c576101008083540402835291602001916108b7565b820191906000526020600020905b81548152906001019060200180831161089a57829003601f168201915b50505050508152602001600282015481526020016003820180546108da9061169c565b80601f01602080910402602001604051908101604052809291908181526020018280546109069061169c565b80156109535780601f1061092857610100808354040283529160200191610953565b820191906000526020600020905b81548152906001019060200180831161093657829003601f168201915b5050505050815260200160048201805461096c9061169c565b80601f01602080910402602001604051908101604052809291908181526020018280546109989061169c565b80156109e55780601f106109ba576101008083540402835291602001916109e5565b820191906000526020600020905b8154815290600101906020018083116109c857829003601f168201915b505050505081526020016005820180546109fe9061169c565b80601f0160208091040260200160405190810160405280929190818152602001828054610a2a9061169c565b8015610a775780601f10610a4c57610100808354040283529160200191610a77565b820191906000526020600020905b815481529060010190602001808311610a5a57829003601f168201915b505050505081526020016006820160009054906101000a900460ff1660ff1660ff168152602001600782018054610aad9061169c565b80601f0160208091040260200160405190810160405280929190818152602001828054610ad99061169c565b8015610b265780601f10610afb57610100808354040283529160200191610b26565b820191906000526020600020905b815481529060010190602001808311610b0957829003601f168201915b50505050508152602001600882018054610b3f9061169c565b80601f0160208091040260200160405190810160405280929190818152602001828054610b6b9061169c565b8015610bb85780601f10610b8d57610100808354040283529160200191610bb8565b820191906000526020600020905b815481529060010190602001808311610b9b57829003601f168201915b505050505081526020016009820160009054906101000a900473ffffffffffffffffffffffffffffffffffffffff1673ffffffffffffffffffffffffffffffffffffffff1673ffffffffffffffffffffffffffffffffffffffff168152602001600a8201805480602002602001604051908101604052809291908181526020016000905b82821015610d2f5783829060005260206000209060040201604051806080016040529081600082018054610c6f9061169c565b80601f0160208091040260200160405190810160405280929190818152602001828054610c9b9061169c565b8015610ce85780601f10610cbd57610100808354040283529160200191610ce8565b820191906000526020600020905b815481529060010190602001808311610ccb57829003601f168201915b50505050508152602001600182015481526020016002820160009054906101000a900460ff1615151515815260200160038201548152505081526020019060010190610c3c565b5050505081525050915050610d7a565b6040517f08c379a0000000000000000000000000000000000000000000000000000000008152600401610d7190611bd8565b60405180910390fd5b919050565b604051806101600160405280606081526020016060815260200160008152602001606081526020016060815260200160608152602001600060ff1681526020016060815260200160608152602001600073ffffffffffffffffffffffffffffffffffffffff168152602001606081525090565b6000604051905090565b600080fd5b600080fd5b600080fd5b600080fd5b6000601f19601f8301169050919050565b7f4e487b7100000000000000000000000000000000000000000000000000000000600052604160045260246000fd5b610e5982610e10565b810181811067ffffffffffffffff82111715610e7857610e77610e21565b5b80604052505050565b6000610e8b610df2565b9050610e978282610e50565b919050565b600067ffffffffffffffff821115610eb757610eb6610e21565b5b610ec082610e10565b9050602081019050919050565b82818337600083830152505050565b6000610eef610eea84610e9c565b610e81565b905082815260208101848484011115610f0b57610f0a610e0b565b5b610f16848285610ecd565b509392505050565b600082601f830112610f3357610f32610e06565b5b8135610f43848260208601610edc565b91505092915050565b6000819050919050565b610f5f81610f4c565b8114610f6a57600080fd5b50565b600081359050610f7c81610f56565b92915050565b600060ff82169050919050565b610f9881610f82565b8114610fa357600080fd5b50565b600081359050610fb581610f8f565b92915050565b600073ffffffffffffffffffffffffffffffffffffffff82169050919050565b6000610fe682610fbb565b9050919050565b610ff681610fdb565b811461100157600080fd5b50565b60008135905061101381610fed565b92915050565b6000806000806000806000806000806101408b8d03121561103d5761103c610dfc565b5b60008b013567ffffffffffffffff81111561105b5761105a610e01565b5b6110678d828e01610f1e565b9a505060208b013567ffffffffffffffff81111561108857611087610e01565b5b6110948d828e01610f1e565b99505060406110a58d828e01610f6d565b98505060608b013567ffffffffffffffff8111156110c6576110c5610e01565b5b6110d28d828e01610f1e565b97505060808b013567ffffffffffffffff8111156110f3576110f2610e01565b5b6110ff8d828e01610f1e565b96505060a08b013567ffffffffffffffff8111156111205761111f610e01565b5b61112c8d828e01610f1e565b95505060c061113d8d828e01610fa6565b94505060e08b013567ffffffffffffffff81111561115e5761115d610e01565b5b61116a8d828e01610f1e565b9350506101008b013567ffffffffffffffff81111561118c5761118b610e01565b5b6111988d828e01610f1e565b9250506101206111aa8d828e01611004565b9150509295989b9194979a5092959850565b6000806000606084860312156111d5576111d4610dfc565b5b600084013567ffffffffffffffff8111156111f3576111f2610e01565b5b6111ff86828701610f1e565b935050602084013567ffffffffffffffff8111156112205761121f610e01565b5b61122c86828701610f1e565b925050604061123d86828701610f6d565b9150509250925092565b6000806040838503121561125e5761125d610dfc565b5b600083013567ffffffffffffffff81111561127c5761127b610e01565b5b61128885828601610f1e565b925050602061129985828601610f6d565b9150509250929050565b6000602082840312156112b9576112b8610dfc565b5b600082013567ffffffffffffffff8111156112d7576112d6610e01565b5b6112e384828501610f1e565b91505092915050565b600081519050919050565b600082825260208201905092915050565b60005b8381101561132657808201518184015260208101905061130b565b60008484015250505050565b600061133d826112ec565b61134781856112f7565b9350611357818560208601611308565b61136081610e10565b840191505092915050565b61137481610f4c565b82525050565b61138381610f82565b82525050565b61139281610fdb565b82525050565b600081519050919050565b600082825260208201905092915050565b6000819050602082019050919050565b60008115159050919050565b6113d9816113c4565b82525050565b600060808301600083015184820360008601526113fc8282611332565b9150506020830151611411602086018261136b565b50604083015161142460408601826113d0565b506060830151611437606086018261136b565b508091505092915050565b600061144e83836113df565b905092915050565b6000602082019050919050565b600061146e82611398565b61147881856113a3565b93508360208202850161148a856113b4565b8060005b858110156114c657848403895281516114a78582611442565b94506114b283611456565b925060208a0199505060018101905061148e565b50829750879550505050505092915050565b60006101608301600083015184820360008601526114f68282611332565b915050602083015184820360208601526115108282611332565b9150506040830151611525604086018261136b565b506060830151848203606086015261153d8282611332565b915050608083015184820360808601526115578282611332565b91505060a083015184820360a08601526115718282611332565b91505060c083015161158660c086018261137a565b5060e083015184820360e086015261159e8282611332565b9150506101008301518482036101008601526115ba8282611332565b9150506101208301516115d1610120860182611389565b506101408301518482036101408601526115eb8282611463565b9150508091505092915050565b6000602082019050818103600083015261161281846114d8565b905092915050565b600081905092915050565b6000611630826112ec565b61163a818561161a565b935061164a818560208601611308565b80840191505092915050565b60006116628284611625565b915081905092915050565b7f4e487b7100000000000000000000000000000000000000000000000000000000600052602260045260246000fd5b600060028204905060018216806116b457607f821691505b6020821081036116c7576116c661166d565b5b50919050565b60008190508160005260206000209050919050565b60006020601f8301049050919050565b600082821b905092915050565b60006008830261172f7fffffffffffffffffffffffffffffffffffffffffffffffffffffffffffffffff826116f2565b61173986836116f2565b95508019841693508086168417925050509392505050565b6000819050919050565b600061177661177161176c84610f4c565b611751565b610f4c565b9050919050565b6000819050919050565b6117908361175b565b6117a461179c8261177d565b8484546116ff565b825550505050565b600090565b6117b96117ac565b6117c4818484611787565b505050565b5b818110156117e8576117dd6000826117b1565b6001810190506117ca565b5050565b601f82111561182d576117fe816116cd565b611807846116e2565b81016020851015611816578190505b61182a611822856116e2565b8301826117c9565b50505b505050565b600082821c905092915050565b600061185060001984600802611832565b1980831691505092915050565b6000611869838361183f565b9150826002028217905092915050565b611882826112ec565b67ffffffffffffffff81111561189b5761189a610e21565b5b6118a5825461169c565b6118b08282856117ec565b600060209050601f8311600181146118e357600084156118d1578287015190505b6118db858261185d565b865550611943565b601f1984166118f1866116cd565b60005b82811015611919578489015182556001820191506020850194506020810190506118f4565b868310156119365784890151611932601f89168261183f565b8355505b6001600288020188555050505b505050505050565b600082825260208201905092915050565b7f6e6f20636172207769746820746869732056494e206e756d6265720000000000600082015250565b6000611992601b8361194b565b915061199d8261195c565b602082019050919050565b600060208201905081810360008301526119c181611985565b9050919050565b7f4e487b7100000000000000000000000000000000000000000000000000000000600052601160045260246000fd5b6000611a0282610f4c565b9150611a0d83610f4c565b9250828201905080821115611a2557611a246119c8565b5b92915050565b600081549050611a3a8161169c565b9050919050565b818103611a4f575050611b27565b611a5882611a2b565b67ffffffffffffffff811115611a7157611a70610e21565b5b611a7b825461169c565b611a868282856117ec565b6000601f831160018114611ab55760008415611aa3578287015490505b611aad858261185d565b865550611b20565b601f198416611ac3876116cd565b9650611ace866116cd565b60005b82811015611af657848901548255600182019150600185019450602081019050611ad1565b86831015611b135784890154611b0f601f89168261183f565b8355505b6001600288020188555050505b5050505050505b565b6000611b3482610f4c565b9150611b3f83610f4c565b9250828203905081811115611b5757611b566119c8565b5b92915050565b7f4e487b7100000000000000000000000000000000000000000000000000000000600052603260045260246000fd5b7f796f7520617265206e6f742074686520636172206f776e657200000000000000600082015250565b6000611bc260198361194b565b9150611bcd82611b8c565b602082019050919050565b60006020820190508181036000830152611bf181611bb5565b905091905056fea2646970667358221220d7b1128132e83de6346d2e3d1b65050b236d9935e2bea6d161435cd834d8959064736f6c63430008130033","opcodes":"PUSH1 0x80 PUSH1 0x40 MSTORE CALLVALUE DUP1 ISZERO PUSH2 0x10 JUMPI PUSH1 0x0 DUP1 REVERT JUMPDEST POP CALLER PUSH1 0x0 DUP1 PUSH2 0x100 EXP DUP2 SLOAD DUP2 PUSH20 0xFFFFFFFFFFFFFFFFFFFFFFFFFFFFFFFFFFFFFFFF MUL NOT AND SWAP1 DUP4 PUSH20 0xFFFFFFFFFFFFFFFFFFFFFFFFFFFFFFFFFFFFFFFF AND MUL OR SWAP1 SSTORE POP PUSH2 0x1C2E DUP1 PUSH2 0x60 PUSH1 0x0 CODECOPY PUSH1 0x0 RETURN INVALID PUSH1 0x80 PUSH1 0x40 MSTORE PUSH1 0x4 CALLDATASIZE LT PUSH2 0x3F JUMPI PUSH1 0x0 CALLDATALOAD PUSH1 0xE0 SHR DUP1 PUSH4 0xA45D962 EQ PUSH2 0x44 JUMPI DUP1 PUSH4 0x1CD30E4B EQ PUSH2 0x6D JUMPI DUP1 PUSH4 0x342BBDD5 EQ PUSH2 0x96 JUMPI DUP1 PUSH4 0xC5320A82 EQ PUSH2 0xB2 JUMPI JUMPDEST PUSH1 0x0 DUP1 REVERT JUMPDEST CALLVALUE DUP1 ISZERO PUSH2 0x50 JUMPI PUSH1 0x0 DUP1 REVERT JUMPDEST POP PUSH2 0x6B PUSH1 0x4 DUP1 CALLDATASIZE SUB DUP2 ADD SWAP1 PUSH2 0x66 SWAP2 SWAP1 PUSH2 0x1019 JUMP JUMPDEST PUSH2 0xEF JUMP JUMPDEST STOP JUMPDEST CALLVALUE DUP1 ISZERO PUSH2 0x79 JUMPI PUSH1 0x0 DUP1 REVERT JUMPDEST POP PUSH2 0x94 PUSH1 0x4 DUP1 CALLDATASIZE SUB DUP2 ADD SWAP1 PUSH2 0x8F SWAP2 SWAP1 PUSH2 0x11BC JUMP JUMPDEST PUSH2 0x25D JUMP JUMPDEST STOP JUMPDEST PUSH2 0xB0 PUSH1 0x4 DUP1 CALLDATASIZE SUB DUP2 ADD SWAP1 PUSH2 0xAB SWAP2 SWAP1 PUSH2 0x1247 JUMP JUMPDEST PUSH2 0x483 JUMP JUMPDEST STOP JUMPDEST CALLVALUE DUP1 ISZERO PUSH2 0xBE JUMPI PUSH1 0x0 DUP1 REVERT JUMPDEST POP PUSH2 0xD9 PUSH1 0x4 DUP1 CALLDATASIZE SUB DUP2 ADD SWAP1 PUSH2 0xD4 SWAP2 SWAP1 PUSH2 0x12A3 JUMP JUMPDEST PUSH2 0x624 JUMP JUMPDEST PUSH1 0x40 MLOAD PUSH2 0xE6 SWAP2 SWAP1 PUSH2 0x15F8 JUMP JUMPDEST PUSH1 0x40 MLOAD DUP1 SWAP2 SUB SWAP1 RETURN JUMPDEST PUSH1 0x0 DUP1 SLOAD SWAP1 PUSH2 0x100 EXP SWAP1 DIV PUSH20 0xFFFFFFFFFFFFFFFFFFFFFFFFFFFFFFFFFFFFFFFF AND PUSH20 0xFFFFFFFFFFFFFFFFFFFFFFFFFFFFFFFFFFFFFFFF AND CALLER PUSH20 0xFFFFFFFFFFFFFFFFFFFFFFFFFFFFFFFFFFFFFFFF AND EQ PUSH2 0x147 JUMPI PUSH1 0x0 DUP1 REVERT JUMPDEST PUSH1 0x0 PUSH1 0x5 DUP5 PUSH1 0x40 MLOAD PUSH2 0x159 SWAP2 SWAP1 PUSH2 0x1656 JUMP JUMPDEST SWAP1 DUP2 MSTORE PUSH1 0x20 ADD PUSH1 0x40 MLOAD DUP1 SWAP2 SUB SWAP1 KECCAK256 SWAP1 POP DUP2 DUP2 PUSH1 0x9 ADD PUSH1 0x0 PUSH2 0x100 EXP DUP2 SLOAD DUP2 PUSH20 0xFFFFFFFFFFFFFFFFFFFFFFFFFFFFFFFFFFFFFFFF MUL NOT AND SWAP1 DUP4 PUSH20 0xFFFFFFFFFFFFFFFFFFFFFFFFFFFFFFFFFFFFFFFF AND MUL OR SWAP1 SSTORE POP DUP11 DUP2 PUSH1 0x0 ADD SWAP1 DUP2 PUSH2 0x1BD SWAP2 SWAP1 PUSH2 0x1879 JUMP JUMPDEST POP DUP10 DUP2 PUSH1 0x1 ADD SWAP1 DUP2 PUSH2 0x1CF SWAP2 SWAP1 PUSH2 0x1879 JUMP JUMPDEST POP DUP9 DUP2 PUSH1 0x2 ADD DUP2 SWAP1 SSTORE POP DUP8 DUP2 PUSH1 0x3 ADD SWAP1 DUP2 PUSH2 0x1EA SWAP2 SWAP1 PUSH2 0x1879 JUMP JUMPDEST POP DUP7 DUP2 PUSH1 0x4 ADD SWAP1 DUP2 PUSH2 0x1FC SWAP2 SWAP1 PUSH2 0x1879 JUMP JUMPDEST POP DUP6 DUP2 PUSH1 0x5 ADD SWAP1 DUP2 PUSH2 0x20E SWAP2 SWAP1 PUSH2 0x1879 JUMP JUMPDEST POP DUP5 DUP2 PUSH1 0x6 ADD PUSH1 0x0 PUSH2 0x100 EXP DUP2 SLOAD DUP2 PUSH1 0xFF MUL NOT AND SWAP1 DUP4 PUSH1 0xFF AND MUL OR SWAP1 SSTORE POP DUP4 DUP2 PUSH1 0x7 ADD SWAP1 DUP2 PUSH2 0x23D SWAP2 SWAP1 PUSH2 0x1879 JUMP JUMPDEST POP DUP3 DUP2 PUSH1 0x8 ADD SWAP1 DUP2 PUSH2 0x24F SWAP2 SWAP1 PUSH2 0x1879 JUMP JUMPDEST POP POP POP POP POP POP POP POP POP POP POP POP JUMP JUMPDEST PUSH1 0x0 DUP1 SLOAD SWAP1 PUSH2 0x100 EXP SWAP1 DIV PUSH20 0xFFFFFFFFFFFFFFFFFFFFFFFFFFFFFFFFFFFFFFFF AND PUSH20 0xFFFFFFFFFFFFFFFFFFFFFFFFFFFFFFFFFFFFFFFF AND CALLER PUSH20 0xFFFFFFFFFFFFFFFFFFFFFFFFFFFFFFFFFFFFFFFF AND EQ PUSH2 0x2B5 JUMPI PUSH1 0x0 DUP1 REVERT JUMPDEST PUSH1 0x0 PUSH1 0x5 DUP5 PUSH1 0x40 MLOAD PUSH2 0x2C7 SWAP2 SWAP1 PUSH2 0x1656 JUMP JUMPDEST SWAP1 DUP2 MSTORE PUSH1 0x20 ADD PUSH1 0x40 MLOAD DUP1 SWAP2 SUB SWAP1 KECCAK256 SWAP1 POP PUSH1 0x0 PUSH20 0xFFFFFFFFFFFFFFFFFFFFFFFFFFFFFFFFFFFFFFFF AND DUP2 PUSH1 0x9 ADD PUSH1 0x0 SWAP1 SLOAD SWAP1 PUSH2 0x100 EXP SWAP1 DIV PUSH20 0xFFFFFFFFFFFFFFFFFFFFFFFFFFFFFFFFFFFFFFFF AND PUSH20 0xFFFFFFFFFFFFFFFFFFFFFFFFFFFFFFFFFFFFFFFF AND SUB PUSH2 0x36A JUMPI PUSH1 0x40 MLOAD PUSH32 0x8C379A000000000000000000000000000000000000000000000000000000000 DUP2 MSTORE PUSH1 0x4 ADD PUSH2 0x361 SWAP1 PUSH2 0x19A8 JUMP JUMPDEST PUSH1 0x40 MLOAD DUP1 SWAP2 SUB SWAP1 REVERT JUMPDEST PUSH1 0x0 PUSH1 0x1 DUP3 PUSH1 0xA ADD DUP1 SLOAD SWAP1 POP PUSH2 0x380 SWAP2 SWAP1 PUSH2 0x19F7 JUMP JUMPDEST SWAP1 POP PUSH1 0x40 MLOAD DUP1 PUSH1 0x80 ADD PUSH1 0x40 MSTORE DUP1 DUP6 DUP2 MSTORE PUSH1 0x20 ADD DUP5 DUP2 MSTORE PUSH1 0x20 ADD PUSH1 0x0 ISZERO ISZERO DUP2 MSTORE PUSH1 0x20 ADD DUP3 DUP2 MSTORE POP PUSH1 0x1 PUSH1 0x0 DUP3 ADD MLOAD DUP2 PUSH1 0x0 ADD SWAP1 DUP2 PUSH2 0x3BD SWAP2 SWAP1 PUSH2 0x1879 JUMP JUMPDEST POP PUSH1 0x20 DUP3 ADD MLOAD DUP2 PUSH1 0x1 ADD SSTORE PUSH1 0x40 DUP3 ADD MLOAD DUP2 PUSH1 0x2 ADD PUSH1 0x0 PUSH2 0x100 EXP DUP2 SLOAD DUP2 PUSH1 0xFF MUL NOT AND SWAP1 DUP4 ISZERO ISZERO MUL OR SWAP1 SSTORE POP PUSH1 0x60 DUP3 ADD MLOAD DUP2 PUSH1 0x3 ADD SSTORE SWAP1 POP POP DUP2 PUSH1 0xA ADD PUSH1 0x1 SWAP1 DUP1 PUSH1 0x1 DUP2 SLOAD ADD DUP1 DUP3 SSTORE DUP1 SWAP2 POP POP PUSH1 0x1 SWAP1 SUB SWAP1 PUSH1 0x0 MSTORE PUSH1 0x20 PUSH1 0x0 KECCAK256 SWAP1 PUSH1 0x4 MUL ADD PUSH1 0x0 SWAP1 SWAP2 SWAP1 SWAP2 SWAP1 SWAP2 POP PUSH1 0x0 DUP3 ADD DUP2 PUSH1 0x0 ADD SWAP1 DUP2 PUSH2 0x438 SWAP2 SWAP1 PUSH2 0x1A41 JUMP JUMPDEST POP PUSH1 0x1 DUP3 ADD SLOAD DUP2 PUSH1 0x1 ADD SSTORE PUSH1 0x2 DUP3 ADD PUSH1 0x0 SWAP1 SLOAD SWAP1 PUSH2 0x100 EXP SWAP1 DIV PUSH1 0xFF AND DUP2 PUSH1 0x2 ADD PUSH1 0x0 PUSH2 0x100 EXP DUP2 SLOAD DUP2 PUSH1 0xFF MUL NOT AND SWAP1 DUP4 ISZERO ISZERO MUL OR SWAP1 SSTORE POP PUSH1 0x3 DUP3 ADD SLOAD DUP2 PUSH1 0x3 ADD SSTORE POP POP POP POP POP POP POP JUMP JUMPDEST PUSH1 0x0 PUSH1 0x5 DUP4 PUSH1 0x40 MLOAD PUSH2 0x495 SWAP2 SWAP1 PUSH2 0x1656 JUMP JUMPDEST SWAP1 DUP2 MSTORE PUSH1 0x20 ADD PUSH1 0x40 MLOAD DUP1 SWAP2 SUB SWAP1 KECCAK256 SWAP1 POP PUSH1 0x0 PUSH20 0xFFFFFFFFFFFFFFFFFFFFFFFFFFFFFFFFFFFFFFFF AND DUP2 PUSH1 0x9 ADD PUSH1 0x0 SWAP1 SLOAD SWAP1 PUSH2 0x100 EXP SWAP1 DIV PUSH20 0xFFFFFFFFFFFFFFFFFFFFFFFFFFFFFFFFFFFFFFFF AND PUSH20 0xFFFFFFFFFFFFFFFFFFFFFFFFFFFFFFFFFFFFFFFF AND SUB PUSH2 0x538 JUMPI PUSH1 0x40 MLOAD PUSH32 0x8C379A000000000000000000000000000000000000000000000000000000000 DUP2 MSTORE PUSH1 0x4 ADD PUSH2 0x52F SWAP1 PUSH2 0x19A8 JUMP JUMPDEST PUSH1 0x40 MLOAD DUP1 SWAP2 SUB SWAP1 REVERT JUMPDEST DUP1 PUSH1 0x9 ADD PUSH1 0x0 SWAP1 SLOAD SWAP1 PUSH2 0x100 EXP SWAP1 DIV PUSH20 0xFFFFFFFFFFFFFFFFFFFFFFFFFFFFFFFFFFFFFFFF AND PUSH20 0xFFFFFFFFFFFFFFFFFFFFFFFFFFFFFFFFFFFFFFFF AND CALLER PUSH20 0xFFFFFFFFFFFFFFFFFFFFFFFFFFFFFFFFFFFFFFFF AND EQ PUSH2 0x594 JUMPI PUSH1 0x0 DUP1 REVERT JUMPDEST DUP1 PUSH1 0xA ADD PUSH1 0x1 DUP4 PUSH2 0x5A5 SWAP2 SWAP1 PUSH2 0x1B29 JUMP JUMPDEST DUP2 SLOAD DUP2 LT PUSH2 0x5B6 JUMPI PUSH2 0x5B5 PUSH2 0x1B5D JUMP JUMPDEST JUMPDEST SWAP1 PUSH1 0x0 MSTORE PUSH1 0x20 PUSH1 0x0 KECCAK256 SWAP1 PUSH1 0x4 MUL ADD PUSH1 0x1 ADD SLOAD CALLVALUE EQ PUSH2 0x5D3 JUMPI PUSH1 0x0 DUP1 REVERT JUMPDEST PUSH1 0x1 DUP2 PUSH1 0xA ADD PUSH1 0x1 DUP5 PUSH2 0x5E6 SWAP2 SWAP1 PUSH2 0x1B29 JUMP JUMPDEST DUP2 SLOAD DUP2 LT PUSH2 0x5F7 JUMPI PUSH2 0x5F6 PUSH2 0x1B5D JUMP JUMPDEST JUMPDEST SWAP1 PUSH1 0x0 MSTORE PUSH1 0x20 PUSH1 0x0 KECCAK256 SWAP1 PUSH1 0x4 MUL ADD PUSH1 0x2 ADD PUSH1 0x0 PUSH2 0x100 EXP DUP2 SLOAD DUP2 PUSH1 0xFF MUL NOT AND SWAP1 DUP4 ISZERO ISZERO MUL OR SWAP1 SSTORE POP POP POP POP JUMP JUMPDEST PUSH2 0x62C PUSH2 0xD7F JUMP JUMPDEST PUSH1 0x0 PUSH1 0x5 DUP4 PUSH1 0x40 MLOAD PUSH2 0x63E SWAP2 SWAP1 PUSH2 0x1656 JUMP JUMPDEST SWAP1 DUP2 MSTORE PUSH1 0x20 ADD PUSH1 0x40 MLOAD DUP1 SWAP2 SUB SWAP1 KECCAK256 SWAP1 POP PUSH1 0x0 PUSH20 0xFFFFFFFFFFFFFFFFFFFFFFFFFFFFFFFFFFFFFFFF AND DUP2 PUSH1 0x9 ADD PUSH1 0x0 SWAP1 SLOAD SWAP1 PUSH2 0x100 EXP SWAP1 DIV PUSH20 0xFFFFFFFFFFFFFFFFFFFFFFFFFFFFFFFFFFFFFFFF AND PUSH20 0xFFFFFFFFFFFFFFFFFFFFFFFFFFFFFFFFFFFFFFFF AND SUB PUSH2 0x6E1 JUMPI PUSH1 0x40 MLOAD PUSH32 0x8C379A000000000000000000000000000000000000000000000000000000000 DUP2 MSTORE PUSH1 0x4 ADD PUSH2 0x6D8 SWAP1 PUSH2 0x19A8 JUMP JUMPDEST PUSH1 0x40 MLOAD DUP1 SWAP2 SUB SWAP1 REVERT JUMPDEST DUP1 PUSH1 0x9 ADD PUSH1 0x0 SWAP1 SLOAD SWAP1 PUSH2 0x100 EXP SWAP1 DIV PUSH20 0xFFFFFFFFFFFFFFFFFFFFFFFFFFFFFFFFFFFFFFFF AND PUSH20 0xFFFFFFFFFFFFFFFFFFFFFFFFFFFFFFFFFFFFFFFF AND CALLER PUSH20 0xFFFFFFFFFFFFFFFFFFFFFFFFFFFFFFFFFFFFFFFF AND EQ DUP1 PUSH2 0x78A JUMPI POP PUSH1 0x0 DUP1 SLOAD SWAP1 PUSH2 0x100 EXP SWAP1 DIV PUSH20 0xFFFFFFFFFFFFFFFFFFFFFFFFFFFFFFFFFFFFFFFF AND PUSH20 0xFFFFFFFFFFFFFFFFFFFFFFFFFFFFFFFFFFFFFFFF AND CALLER PUSH20 0xFFFFFFFFFFFFFFFFFFFFFFFFFFFFFFFFFFFFFFFF AND EQ JUMPDEST ISZERO PUSH2 0xD3F JUMPI DUP1 PUSH1 0x40 MLOAD DUP1 PUSH2 0x160 ADD PUSH1 0x40 MSTORE SWAP1 DUP2 PUSH1 0x0 DUP3 ADD DUP1 SLOAD PUSH2 0x7AC SWAP1 PUSH2 0x169C JUMP JUMPDEST DUP1 PUSH1 0x1F ADD PUSH1 0x20 DUP1 SWAP2 DIV MUL PUSH1 0x20 ADD PUSH1 0x40 MLOAD SWAP1 DUP2 ADD PUSH1 0x40 MSTORE DUP1 SWAP3 SWAP2 SWAP1 DUP2 DUP2 MSTORE PUSH1 0x20 ADD DUP3 DUP1 SLOAD PUSH2 0x7D8 SWAP1 PUSH2 0x169C JUMP JUMPDEST DUP1 ISZERO PUSH2 0x825 JUMPI DUP1 PUSH1 0x1F LT PUSH2 0x7FA JUMPI PUSH2 0x100 DUP1 DUP4 SLOAD DIV MUL DUP4 MSTORE SWAP2 PUSH1 0x20 ADD SWAP2 PUSH2 0x825 JUMP JUMPDEST DUP3 ADD SWAP2 SWAP1 PUSH1 0x0 MSTORE PUSH1 0x20 PUSH1 0x0 KECCAK256 SWAP1 JUMPDEST DUP2 SLOAD DUP2 MSTORE SWAP1 PUSH1 0x1 ADD SWAP1 PUSH1 0x20 ADD DUP1 DUP4 GT PUSH2 0x808 JUMPI DUP3 SWAP1 SUB PUSH1 0x1F AND DUP3 ADD SWAP2 JUMPDEST POP POP POP POP POP DUP2 MSTORE PUSH1 0x20 ADD PUSH1 0x1 DUP3 ADD DUP1 SLOAD PUSH2 0x83E SWAP1 PUSH2 0x169C JUMP JUMPDEST DUP1 PUSH1 0x1F ADD PUSH1 0x20 DUP1 SWAP2 DIV MUL PUSH1 0x20 ADD PUSH1 0x40 MLOAD SWAP1 DUP2 ADD PUSH1 0x40 MSTORE DUP1 SWAP3 SWAP2 SWAP1 DUP2 DUP2 MSTORE PUSH1 0x20 ADD DUP3 DUP1 SLOAD PUSH2 0x86A SWAP1 PUSH2 0x169C JUMP JUMPDEST DUP1 ISZERO PUSH2 0x8B7 JUMPI DUP1 PUSH1 0x1F LT PUSH2 0x88C JUMPI PUSH2 0x100 DUP1 DUP4 SLOAD DIV MUL DUP4 MSTORE SWAP2 PUSH1 0x20 ADD SWAP2 PUSH2 0x8B7 JUMP JUMPDEST DUP3 ADD SWAP2 SWAP1 PUSH1 0x0 MSTORE PUSH1 0x20 PUSH1 0x0 KECCAK256 SWAP1 JUMPDEST DUP2 SLOAD DUP2 MSTORE SWAP1 PUSH1 0x1 ADD SWAP1 PUSH1 0x20 ADD DUP1 DUP4 GT PUSH2 0x89A JUMPI DUP3 SWAP1 SUB PUSH1 0x1F AND DUP3 ADD SWAP2 JUMPDEST POP POP POP POP POP DUP2 MSTORE PUSH1 0x20 ADD PUSH1 0x2 DUP3 ADD SLOAD DUP2 MSTORE PUSH1 0x20 ADD PUSH1 0x3 DUP3 ADD DUP1 SLOAD PUSH2 0x8DA SWAP1 PUSH2 0x169C JUMP JUMPDEST DUP1 PUSH1 0x1F ADD PUSH1 0x20 DUP1 SWAP2 DIV MUL PUSH1 0x20 ADD PUSH1 0x40 MLOAD SWAP1 DUP2 ADD PUSH1 0x40 MSTORE DUP1 SWAP3 SWAP2 SWAP1 DUP2 DUP2 MSTORE PUSH1 0x20 ADD DUP3 DUP1 SLOAD PUSH2 0x906 SWAP1 PUSH2 0x169C JUMP JUMPDEST DUP1 ISZERO PUSH2 0x953 JUMPI DUP1 PUSH1 0x1F LT PUSH2 0x928 JUMPI PUSH2 0x100 DUP1 DUP4 SLOAD DIV MUL DUP4 MSTORE SWAP2 PUSH1 0x20 ADD SWAP2 PUSH2 0x953 JUMP JUMPDEST DUP3 ADD SWAP2 SWAP1 PUSH1 0x0 MSTORE PUSH1 0x20 PUSH1 0x0 KECCAK256 SWAP1 JUMPDEST DUP2 SLOAD DUP2 MSTORE SWAP1 PUSH1 0x1 ADD SWAP1 PUSH1 0x20 ADD DUP1 DUP4 GT PUSH2 0x936 JUMPI DUP3 SWAP1 SUB PUSH1 0x1F AND DUP3 ADD SWAP2 JUMPDEST POP POP POP POP POP DUP2 MSTORE PUSH1 0x20 ADD PUSH1 0x4 DUP3 ADD DUP1 SLOAD PUSH2 0x96C SWAP1 PUSH2 0x169C JUMP JUMPDEST DUP1 PUSH1 0x1F ADD PUSH1 0x20 DUP1 SWAP2 DIV MUL PUSH1 0x20 ADD PUSH1 0x40 MLOAD SWAP1 DUP2 ADD PUSH1 0x40 MSTORE DUP1 SWAP3 SWAP2 SWAP1 DUP2 DUP2 MSTORE PUSH1 0x20 ADD DUP3 DUP1 SLOAD PUSH2 0x998 SWAP1 PUSH2 0x169C JUMP JUMPDEST DUP1 ISZERO PUSH2 0x9E5 JUMPI DUP1 PUSH1 0x1F LT PUSH2 0x9BA JUMPI PUSH2 0x100 DUP1 DUP4 SLOAD DIV MUL DUP4 MSTORE SWAP2 PUSH1 0x20 ADD SWAP2 PUSH2 0x9E5 JUMP JUMPDEST DUP3 ADD SWAP2 SWAP1 PUSH1 0x0 MSTORE PUSH1 0x20 PUSH1 0x0 KECCAK256 SWAP1 JUMPDEST DUP2 SLOAD DUP2 MSTORE SWAP1 PUSH1 0x1 ADD SWAP1 PUSH1 0x20 ADD DUP1 DUP4 GT PUSH2 0x9C8 JUMPI DUP3 SWAP1 SUB PUSH1 0x1F AND DUP3 ADD SWAP2 JUMPDEST POP POP POP POP POP DUP2 MSTORE PUSH1 0x20 ADD PUSH1 0x5 DUP3 ADD DUP1 SLOAD PUSH2 0x9FE SWAP1 PUSH2 0x169C JUMP JUMPDEST DUP1 PUSH1 0x1F ADD PUSH1 0x20 DUP1 SWAP2 DIV MUL PUSH1 0x20 ADD PUSH1 0x40 MLOAD SWAP1 DUP2 ADD PUSH1 0x40 MSTORE DUP1 SWAP3 SWAP2 SWAP1 DUP2 DUP2 MSTORE PUSH1 0x20 ADD DUP3 DUP1 SLOAD PUSH2 0xA2A SWAP1 PUSH2 0x169C JUMP JUMPDEST DUP1 ISZERO PUSH2 0xA77 JUMPI DUP1 PUSH1 0x1F LT PUSH2 0xA4C JUMPI PUSH2 0x100 DUP1 DUP4 SLOAD DIV MUL DUP4 MSTORE SWAP2 PUSH1 0x20 ADD SWAP2 PUSH2 0xA77 JUMP JUMPDEST DUP3 ADD SWAP2 SWAP1 PUSH1 0x0 MSTORE PUSH1 0x20 PUSH1 0x0 KECCAK256 SWAP1 JUMPDEST DUP2 SLOAD DUP2 MSTORE SWAP1 PUSH1 0x1 ADD SWAP1 PUSH1 0x20 ADD DUP1 DUP4 GT PUSH2 0xA5A JUMPI DUP3 SWAP1 SUB PUSH1 0x1F AND DUP3 ADD SWAP2 JUMPDEST POP POP POP POP POP DUP2 MSTORE PUSH1 0x20 ADD PUSH1 0x6 DUP3 ADD PUSH1 0x0 SWAP1 SLOAD SWAP1 PUSH2 0x100 EXP SWAP1 DIV PUSH1 0xFF AND PUSH1 0xFF AND PUSH1 0xFF AND DUP2 MSTORE PUSH1 0x20 ADD PUSH1 0x7 DUP3 ADD DUP1 SLOAD PUSH2 0xAAD SWAP1 PUSH2 0x169C JUMP JUMPDEST DUP1 PUSH1 0x1F ADD PUSH1 0x20 DUP1 SWAP2 DIV MUL PUSH1 0x20 ADD PUSH1 0x40 MLOAD SWAP1 DUP2 ADD PUSH1 0x40 MSTORE DUP1 SWAP3 SWAP2 SWAP1 DUP2 DUP2 MSTORE PUSH1 0x20 ADD DUP3 DUP1 SLOAD PUSH2 0xAD9 SWAP1 PUSH2 0x169C JUMP JUMPDEST DUP1 ISZERO PUSH2 0xB26 JUMPI DUP1 PUSH1 0x1F LT PUSH2 0xAFB JUMPI PUSH2 0x100 DUP1 DUP4 SLOAD DIV MUL DUP4 MSTORE SWAP2 PUSH1 0x20 ADD SWAP2 PUSH2 0xB26 JUMP JUMPDEST DUP3 ADD SWAP2 SWAP1 PUSH1 0x0 MSTORE PUSH1 0x20 PUSH1 0x0 KECCAK256 SWAP1 JUMPDEST DUP2 SLOAD DUP2 MSTORE SWAP1 PUSH1 0x1 ADD SWAP1 PUSH1 0x20 ADD DUP1 DUP4 GT PUSH2 0xB09 JUMPI DUP3 SWAP1 SUB PUSH1 0x1F AND DUP3 ADD SWAP2 JUMPDEST POP POP POP POP POP DUP2 MSTORE PUSH1 0x20 ADD PUSH1 0x8 DUP3 ADD DUP1 SLOAD PUSH2 0xB3F SWAP1 PUSH2 0x169C JUMP JUMPDEST DUP1 PUSH1 0x1F ADD PUSH1 0x20 DUP1 SWAP2 DIV MUL PUSH1 0x20 ADD PUSH1 0x40 MLOAD SWAP1 DUP2 ADD PUSH1 0x40 MSTORE DUP1 SWAP3 SWAP2 SWAP1 DUP2 DUP2 MSTORE PUSH1 0x20 ADD DUP3 DUP1 SLOAD PUSH2 0xB6B SWAP1 PUSH2 0x169C JUMP JUMPDEST DUP1 ISZERO PUSH2 0xBB8 JUMPI DUP1 PUSH1 0x1F LT PUSH2 0xB8D JUMPI PUSH2 0x100 DUP1 DUP4 SLOAD DIV MUL DUP4 MSTORE SWAP2 PUSH1 0x20 ADD SWAP2 PUSH2 0xBB8 JUMP JUMPDEST DUP3 ADD SWAP2 SWAP1 PUSH1 0x0 MSTORE PUSH1 0x20 PUSH1 0x0 KECCAK256 SWAP1 JUMPDEST DUP2 SLOAD DUP2 MSTORE SWAP1 PUSH1 0x1 ADD SWAP1 PUSH1 0x20 ADD DUP1 DUP4 GT PUSH2 0xB9B JUMPI DUP3 SWAP1 SUB PUSH1 0x1F AND DUP3 ADD SWAP2 JUMPDEST POP POP POP POP POP DUP2 MSTORE PUSH1 0x20 ADD PUSH1 0x9 DUP3 ADD PUSH1 0x0 SWAP1 SLOAD SWAP1 PUSH2 0x100 EXP SWAP1 DIV PUSH20 0xFFFFFFFFFFFFFFFFFFFFFFFFFFFFFFFFFFFFFFFF AND PUSH20 0xFFFFFFFFFFFFFFFFFFFFFFFFFFFFFFFFFFFFFFFF AND PUSH20 0xFFFFFFFFFFFFFFFFFFFFFFFFFFFFFFFFFFFFFFFF AND DUP2 MSTORE PUSH1 0x20 ADD PUSH1 0xA DUP3 ADD DUP1 SLOAD DUP1 PUSH1 0x20 MUL PUSH1 0x20 ADD PUSH1 0x40 MLOAD SWAP1 DUP2 ADD PUSH1 0x40 MSTORE DUP1 SWAP3 SWAP2 SWAP1 DUP2 DUP2 MSTORE PUSH1 0x20 ADD PUSH1 0x0 SWAP1 JUMPDEST DUP3 DUP3 LT ISZERO PUSH2 0xD2F JUMPI DUP4 DUP3 SWAP1 PUSH1 0x0 MSTORE PUSH1 0x20 PUSH1 0x0 KECCAK256 SWAP1 PUSH1 0x4 MUL ADD PUSH1 0x40 MLOAD DUP1 PUSH1 0x80 ADD PUSH1 0x40 MSTORE SWAP1 DUP2 PUSH1 0x0 DUP3 ADD DUP1 SLOAD PUSH2 0xC6F SWAP1 PUSH2 0x169C JUMP JUMPDEST DUP1 PUSH1 0x1F ADD PUSH1 0x20 DUP1 SWAP2 DIV MUL PUSH1 0x20 ADD PUSH1 0x40 MLOAD SWAP1 DUP2 ADD PUSH1 0x40 MSTORE DUP1 SWAP3 SWAP2 SWAP1 DUP2 DUP2 MSTORE PUSH1 0x20 ADD DUP3 DUP1 SLOAD PUSH2 0xC9B SWAP1 PUSH2 0x169C JUMP JUMPDEST DUP1 ISZERO PUSH2 0xCE8 JUMPI DUP1 PUSH1 0x1F LT PUSH2 0xCBD JUMPI PUSH2 0x100 DUP1 DUP4 SLOAD DIV MUL DUP4 MSTORE SWAP2 PUSH1 0x20 ADD SWAP2 PUSH2 0xCE8 JUMP JUMPDEST DUP3 ADD SWAP2 SWAP1 PUSH1 0x0 MSTORE PUSH1 0x20 PUSH1 0x0 KECCAK256 SWAP1 JUMPDEST DUP2 SLOAD DUP2 MSTORE SWAP1 PUSH1 0x1 ADD SWAP1 PUSH1 0x20 ADD DUP1 DUP4 GT PUSH2 0xCCB JUMPI DUP3 SWAP1 SUB PUSH1 0x1F AND DUP3 ADD SWAP2 JUMPDEST POP POP POP POP POP DUP2 MSTORE PUSH1 0x20 ADD PUSH1 0x1 DUP3 ADD SLOAD DUP2 MSTORE PUSH1 0x20 ADD PUSH1 0x2 DUP3 ADD PUSH1 0x0 SWAP1 SLOAD SWAP1 PUSH2 0x100 EXP SWAP1 DIV PUSH1 0xFF AND ISZERO ISZERO ISZERO ISZERO DUP2 MSTORE PUSH1 0x20 ADD PUSH1 0x3 DUP3 ADD SLOAD DUP2 MSTORE POP POP DUP2 MSTORE PUSH1 0x20 ADD SWAP1 PUSH1 0x1 ADD SWAP1 PUSH2 0xC3C JUMP JUMPDEST POP POP POP POP DUP2 MSTORE POP POP SWAP2 POP POP PUSH2 0xD7A JUMP JUMPDEST PUSH1 0x40 MLOAD PUSH32 0x8C379A000000000000000000000000000000000000000000000000000000000 DUP2 MSTORE PUSH1 0x4 ADD PUSH2 0xD71 SWAP1 PUSH2 0x1BD8 JUMP JUMPDEST PUSH1 0x40 MLOAD DUP1 SWAP2 SUB SWAP1 REVERT JUMPDEST SWAP2 SWAP1 POP JUMP JUMPDEST PUSH1 0x40 MLOAD DUP1 PUSH2 0x160 ADD PUSH1 0x40 MSTORE DUP1 PUSH1 0x60 DUP2 MSTORE PUSH1 0x20 ADD PUSH1 0x60 DUP2 MSTORE PUSH1 0x20 ADD PUSH1 0x0 DUP2 MSTORE PUSH1 0x20 ADD PUSH1 0x60 DUP2 MSTORE PUSH1 0x20 ADD PUSH1 0x60 DUP2 MSTORE PUSH1 0x20 ADD PUSH1 0x60 DUP2 MSTORE PUSH1 0x20 ADD PUSH1 0x0 PUSH1 0xFF AND DUP2 MSTORE PUSH1 0x20 ADD PUSH1 0x60 DUP2 MSTORE PUSH1 0x20 ADD PUSH1 0x60 DUP2 MSTORE PUSH1 0x20 ADD PUSH1 0x0 PUSH20 0xFFFFFFFFFFFFFFFFFFFFFFFFFFFFFFFFFFFFFFFF AND DUP2 MSTORE PUSH1 0x20 ADD PUSH1 0x60 DUP2 MSTORE POP SWAP1 JUMP JUMPDEST PUSH1 0x0 PUSH1 0x40 MLOAD SWAP1 POP SWAP1 JUMP JUMPDEST PUSH1 0x0 DUP1 REVERT JUMPDEST PUSH1 0x0 DUP1 REVERT JUMPDEST PUSH1 0x0 DUP1 REVERT JUMPDEST PUSH1 0x0 DUP1 REVERT JUMPDEST PUSH1 0x0 PUSH1 0x1F NOT PUSH1 0x1F DUP4 ADD AND SWAP1 POP SWAP2 SWAP1 POP JUMP JUMPDEST PUSH32 0x4E487B7100000000000000000000000000000000000000000000000000000000 PUSH1 0x0 MSTORE PUSH1 0x41 PUSH1 0x4 MSTORE PUSH1 0x24 PUSH1 0x0 REVERT JUMPDEST PUSH2 0xE59 DUP3 PUSH2 0xE10 JUMP JUMPDEST DUP2 ADD DUP2 DUP2 LT PUSH8 0xFFFFFFFFFFFFFFFF DUP3 GT OR ISZERO PUSH2 0xE78 JUMPI PUSH2 0xE77 PUSH2 0xE21 JUMP JUMPDEST JUMPDEST DUP1 PUSH1 0x40 MSTORE POP POP POP JUMP JUMPDEST PUSH1 0x0 PUSH2 0xE8B PUSH2 0xDF2 JUMP JUMPDEST SWAP1 POP PUSH2 0xE97 DUP3 DUP3 PUSH2 0xE50 JUMP JUMPDEST SWAP2 SWAP1 POP JUMP JUMPDEST PUSH1 0x0 PUSH8 0xFFFFFFFFFFFFFFFF DUP3 GT ISZERO PUSH2 0xEB7 JUMPI PUSH2 0xEB6 PUSH2 0xE21 JUMP JUMPDEST JUMPDEST PUSH2 0xEC0 DUP3 PUSH2 0xE10 JUMP JUMPDEST SWAP1 POP PUSH1 0x20 DUP2 ADD SWAP1 POP SWAP2 SWAP1 POP JUMP JUMPDEST DUP3 DUP2 DUP4 CALLDATACOPY PUSH1 0x0 DUP4 DUP4 ADD MSTORE POP POP POP JUMP JUMPDEST PUSH1 0x0 PUSH2 0xEEF PUSH2 0xEEA DUP5 PUSH2 0xE9C JUMP JUMPDEST PUSH2 0xE81 JUMP JUMPDEST SWAP1 POP DUP3 DUP2 MSTORE PUSH1 0x20 DUP2 ADD DUP5 DUP5 DUP5 ADD GT ISZERO PUSH2 0xF0B JUMPI PUSH2 0xF0A PUSH2 0xE0B JUMP JUMPDEST JUMPDEST PUSH2 0xF16 DUP5 DUP3 DUP6 PUSH2 0xECD JUMP JUMPDEST POP SWAP4 SWAP3 POP POP POP JUMP JUMPDEST PUSH1 0x0 DUP3 PUSH1 0x1F DUP4 ADD SLT PUSH2 0xF33 JUMPI PUSH2 0xF32 PUSH2 0xE06 JUMP JUMPDEST JUMPDEST DUP2 CALLDATALOAD PUSH2 0xF43 DUP5 DUP3 PUSH1 0x20 DUP7 ADD PUSH2 0xEDC JUMP JUMPDEST SWAP2 POP POP SWAP3 SWAP2 POP POP JUMP JUMPDEST PUSH1 0x0 DUP2 SWAP1 POP SWAP2 SWAP1 POP JUMP JUMPDEST PUSH2 0xF5F DUP2 PUSH2 0xF4C JUMP JUMPDEST DUP2 EQ PUSH2 0xF6A JUMPI PUSH1 0x0 DUP1 REVERT JUMPDEST POP JUMP JUMPDEST PUSH1 0x0 DUP2 CALLDATALOAD SWAP1 POP PUSH2 0xF7C DUP2 PUSH2 0xF56 JUMP JUMPDEST SWAP3 SWAP2 POP POP JUMP JUMPDEST PUSH1 0x0 PUSH1 0xFF DUP3 AND SWAP1 POP SWAP2 SWAP1 POP JUMP JUMPDEST PUSH2 0xF98 DUP2 PUSH2 0xF82 JUMP JUMPDEST DUP2 EQ PUSH2 0xFA3 JUMPI PUSH1 0x0 DUP1 REVERT JUMPDEST POP JUMP JUMPDEST PUSH1 0x0 DUP2 CALLDATALOAD SWAP1 POP PUSH2 0xFB5 DUP2 PUSH2 0xF8F JUMP JUMPDEST SWAP3 SWAP2 POP POP JUMP JUMPDEST PUSH1 0x0 PUSH20 0xFFFFFFFFFFFFFFFFFFFFFFFFFFFFFFFFFFFFFFFF DUP3 AND SWAP1 POP SWAP2 SWAP1 POP JUMP JUMPDEST PUSH1 0x0 PUSH2 0xFE6 DUP3 PUSH2 0xFBB JUMP JUMPDEST SWAP1 POP SWAP2 SWAP1 POP JUMP JUMPDEST PUSH2 0xFF6 DUP2 PUSH2 0xFDB JUMP JUMPDEST DUP2 EQ PUSH2 0x1001 JUMPI PUSH1 0x0 DUP1 REVERT JUMPDEST POP JUMP JUMPDEST PUSH1 0x0 DUP2 CALLDATALOAD SWAP1 POP PUSH2 0x1013 DUP2 PUSH2 0xFED JUMP JUMPDEST SWAP3 SWAP2 POP POP JUMP JUMPDEST PUSH1 0x0 DUP1 PUSH1 0x0 DUP1 PUSH1 0x0 DUP1 PUSH1 0x0 DUP1 PUSH1 0x0 DUP1 PUSH2 0x140 DUP12 DUP14 SUB SLT ISZERO PUSH2 0x103D JUMPI PUSH2 0x103C PUSH2 0xDFC JUMP JUMPDEST JUMPDEST PUSH1 0x0 DUP12 ADD CALLDATALOAD PUSH8 0xFFFFFFFFFFFFFFFF DUP2 GT ISZERO PUSH2 0x105B JUMPI PUSH2 0x105A PUSH2 0xE01 JUMP JUMPDEST JUMPDEST PUSH2 0x1067 DUP14 DUP3 DUP15 ADD PUSH2 0xF1E JUMP JUMPDEST SWAP11 POP POP PUSH1 0x20 DUP12 ADD CALLDATALOAD PUSH8 0xFFFFFFFFFFFFFFFF DUP2 GT ISZERO PUSH2 0x1088 JUMPI PUSH2 0x1087 PUSH2 0xE01 JUMP JUMPDEST JUMPDEST PUSH2 0x1094 DUP14 DUP3 DUP15 ADD PUSH2 0xF1E JUMP JUMPDEST SWAP10 POP POP PUSH1 0x40 PUSH2 0x10A5 DUP14 DUP3 DUP15 ADD PUSH2 0xF6D JUMP JUMPDEST SWAP9 POP POP PUSH1 0x60 DUP12 ADD CALLDATALOAD PUSH8 0xFFFFFFFFFFFFFFFF DUP2 GT ISZERO PUSH2 0x10C6 JUMPI PUSH2 0x10C5 PUSH2 0xE01 JUMP JUMPDEST JUMPDEST PUSH2 0x10D2 DUP14 DUP3 DUP15 ADD PUSH2 0xF1E JUMP JUMPDEST SWAP8 POP POP PUSH1 0x80 DUP12 ADD CALLDATALOAD PUSH8 0xFFFFFFFFFFFFFFFF DUP2 GT ISZERO PUSH2 0x10F3 JUMPI PUSH2 0x10F2 PUSH2 0xE01 JUMP JUMPDEST JUMPDEST PUSH2 0x10FF DUP14 DUP3 DUP15 ADD PUSH2 0xF1E JUMP JUMPDEST SWAP7 POP POP PUSH1 0xA0 DUP12 ADD CALLDATALOAD PUSH8 0xFFFFFFFFFFFFFFFF DUP2 GT ISZERO PUSH2 0x1120 JUMPI PUSH2 0x111F PUSH2 0xE01 JUMP JUMPDEST JUMPDEST PUSH2 0x112C DUP14 DUP3 DUP15 ADD PUSH2 0xF1E JUMP JUMPDEST SWAP6 POP POP PUSH1 0xC0 PUSH2 0x113D DUP14 DUP3 DUP15 ADD PUSH2 0xFA6 JUMP JUMPDEST SWAP5 POP POP PUSH1 0xE0 DUP12 ADD CALLDATALOAD PUSH8 0xFFFFFFFFFFFFFFFF DUP2 GT ISZERO PUSH2 0x115E JUMPI PUSH2 0x115D PUSH2 0xE01 JUMP JUMPDEST JUMPDEST PUSH2 0x116A DUP14 DUP3 DUP15 ADD PUSH2 0xF1E JUMP JUMPDEST SWAP4 POP POP PUSH2 0x100 DUP12 ADD CALLDATALOAD PUSH8 0xFFFFFFFFFFFFFFFF DUP2 GT ISZERO PUSH2 0x118C JUMPI PUSH2 0x118B PUSH2 0xE01 JUMP JUMPDEST JUMPDEST PUSH2 0x1198 DUP14 DUP3 DUP15 ADD PUSH2 0xF1E JUMP JUMPDEST SWAP3 POP POP PUSH2 0x120 PUSH2 0x11AA DUP14 DUP3 DUP15 ADD PUSH2 0x1004 JUMP JUMPDEST SWAP2 POP POP SWAP3 SWAP6 SWAP9 SWAP12 SWAP2 SWAP5 SWAP8 SWAP11 POP SWAP3 SWAP6 SWAP9 POP JUMP JUMPDEST PUSH1 0x0 DUP1 PUSH1 0x0 PUSH1 0x60 DUP5 DUP7 SUB SLT ISZERO PUSH2 0x11D5 JUMPI PUSH2 0x11D4 PUSH2 0xDFC JUMP JUMPDEST JUMPDEST PUSH1 0x0 DUP5 ADD CALLDATALOAD PUSH8 0xFFFFFFFFFFFFFFFF DUP2 GT ISZERO PUSH2 0x11F3 JUMPI PUSH2 0x11F2 PUSH2 0xE01 JUMP JUMPDEST JUMPDEST PUSH2 0x11FF DUP7 DUP3 DUP8 ADD PUSH2 0xF1E JUMP JUMPDEST SWAP4 POP POP PUSH1 0x20 DUP5 ADD CALLDATALOAD PUSH8 0xFFFFFFFFFFFFFFFF DUP2 GT ISZERO PUSH2 0x1220 JUMPI PUSH2 0x121F PUSH2 0xE01 JUMP JUMPDEST JUMPDEST PUSH2 0x122C DUP7 DUP3 DUP8 ADD PUSH2 0xF1E JUMP JUMPDEST SWAP3 POP POP PUSH1 0x40 PUSH2 0x123D DUP7 DUP3 DUP8 ADD PUSH2 0xF6D JUMP JUMPDEST SWAP2 POP POP SWAP3 POP SWAP3 POP SWAP3 JUMP JUMPDEST PUSH1 0x0 DUP1 PUSH1 0x40 DUP4 DUP6 SUB SLT ISZERO PUSH2 0x125E JUMPI PUSH2 0x125D PUSH2 0xDFC JUMP JUMPDEST JUMPDEST PUSH1 0x0 DUP4 ADD CALLDATALOAD PUSH8 0xFFFFFFFFFFFFFFFF DUP2 GT ISZERO PUSH2 0x127C JUMPI PUSH2 0x127B PUSH2 0xE01 JUMP JUMPDEST JUMPDEST PUSH2 0x1288 DUP6 DUP3 DUP7 ADD PUSH2 0xF1E JUMP JUMPDEST SWAP3 POP POP PUSH1 0x20 PUSH2 0x1299 DUP6 DUP3 DUP7 ADD PUSH2 0xF6D JUMP JUMPDEST SWAP2 POP POP SWAP3 POP SWAP3 SWAP1 POP JUMP JUMPDEST PUSH1 0x0 PUSH1 0x20 DUP3 DUP5 SUB SLT ISZERO PUSH2 0x12B9 JUMPI PUSH2 0x12B8 PUSH2 0xDFC JUMP JUMPDEST JUMPDEST PUSH1 0x0 DUP3 ADD CALLDATALOAD PUSH8 0xFFFFFFFFFFFFFFFF DUP2 GT ISZERO PUSH2 0x12D7 JUMPI PUSH2 0x12D6 PUSH2 0xE01 JUMP JUMPDEST JUMPDEST PUSH2 0x12E3 DUP5 DUP3 DUP6 ADD PUSH2 0xF1E JUMP JUMPDEST SWAP2 POP POP SWAP3 SWAP2 POP POP JUMP JUMPDEST PUSH1 0x0 DUP2 MLOAD SWAP1 POP SWAP2 SWAP1 POP JUMP JUMPDEST PUSH1 0x0 DUP3 DUP3 MSTORE PUSH1 0x20 DUP3 ADD SWAP1 POP SWAP3 SWAP2 POP POP JUMP JUMPDEST PUSH1 0x0 JUMPDEST DUP4 DUP2 LT ISZERO PUSH2 0x1326 JUMPI DUP1 DUP3 ADD MLOAD DUP2 DUP5 ADD MSTORE PUSH1 0x20 DUP2 ADD SWAP1 POP PUSH2 0x130B JUMP JUMPDEST PUSH1 0x0 DUP5 DUP5 ADD MSTORE POP POP POP POP JUMP JUMPDEST PUSH1 0x0 PUSH2 0x133D DUP3 PUSH2 0x12EC JUMP JUMPDEST PUSH2 0x1347 DUP2 DUP6 PUSH2 0x12F7 JUMP JUMPDEST SWAP4 POP PUSH2 0x1357 DUP2 DUP6 PUSH1 0x20 DUP7 ADD PUSH2 0x1308 JUMP JUMPDEST PUSH2 0x1360 DUP2 PUSH2 0xE10 JUMP JUMPDEST DUP5 ADD SWAP2 POP POP SWAP3 SWAP2 POP POP JUMP JUMPDEST PUSH2 0x1374 DUP2 PUSH2 0xF4C JUMP JUMPDEST DUP3 MSTORE POP POP JUMP JUMPDEST PUSH2 0x1383 DUP2 PUSH2 0xF82 JUMP JUMPDEST DUP3 MSTORE POP POP JUMP JUMPDEST PUSH2 0x1392 DUP2 PUSH2 0xFDB JUMP JUMPDEST DUP3 MSTORE POP POP JUMP JUMPDEST PUSH1 0x0 DUP2 MLOAD SWAP1 POP SWAP2 SWAP1 POP JUMP JUMPDEST PUSH1 0x0 DUP3 DUP3 MSTORE PUSH1 0x20 DUP3 ADD SWAP1 POP SWAP3 SWAP2 POP POP JUMP JUMPDEST PUSH1 0x0 DUP2 SWAP1 POP PUSH1 0x20 DUP3 ADD SWAP1 POP SWAP2 SWAP1 POP JUMP JUMPDEST PUSH1 0x0 DUP2 ISZERO ISZERO SWAP1 POP SWAP2 SWAP1 POP JUMP JUMPDEST PUSH2 0x13D9 DUP2 PUSH2 0x13C4 JUMP JUMPDEST DUP3 MSTORE POP POP JUMP JUMPDEST PUSH1 0x0 PUSH1 0x80 DUP4 ADD PUSH1 0x0 DUP4 ADD MLOAD DUP5 DUP3 SUB PUSH1 0x0 DUP7 ADD MSTORE PUSH2 0x13FC DUP3 DUP3 PUSH2 0x1332 JUMP JUMPDEST SWAP2 POP POP PUSH1 0x20 DUP4 ADD MLOAD PUSH2 0x1411 PUSH1 0x20 DUP7 ADD DUP3 PUSH2 0x136B JUMP JUMPDEST POP PUSH1 0x40 DUP4 ADD MLOAD PUSH2 0x1424 PUSH1 0x40 DUP7 ADD DUP3 PUSH2 0x13D0 JUMP JUMPDEST POP PUSH1 0x60 DUP4 ADD MLOAD PUSH2 0x1437 PUSH1 0x60 DUP7 ADD DUP3 PUSH2 0x136B JUMP JUMPDEST POP DUP1 SWAP2 POP POP SWAP3 SWAP2 POP POP JUMP JUMPDEST PUSH1 0x0 PUSH2 0x144E DUP4 DUP4 PUSH2 0x13DF JUMP JUMPDEST SWAP1 POP SWAP3 SWAP2 POP POP JUMP JUMPDEST PUSH1 0x0 PUSH1 0x20 DUP3 ADD SWAP1 POP SWAP2 SWAP1 POP JUMP JUMPDEST PUSH1 0x0 PUSH2 0x146E DUP3 PUSH2 0x1398 JUMP JUMPDEST PUSH2 0x1478 DUP2 DUP6 PUSH2 0x13A3 JUMP JUMPDEST SWAP4 POP DUP4 PUSH1 0x20 DUP3 MUL DUP6 ADD PUSH2 0x148A DUP6 PUSH2 0x13B4 JUMP JUMPDEST DUP1 PUSH1 0x0 JUMPDEST DUP6 DUP2 LT ISZERO PUSH2 0x14C6 JUMPI DUP5 DUP5 SUB DUP10 MSTORE DUP2 MLOAD PUSH2 0x14A7 DUP6 DUP3 PUSH2 0x1442 JUMP JUMPDEST SWAP5 POP PUSH2 0x14B2 DUP4 PUSH2 0x1456 JUMP JUMPDEST SWAP3 POP PUSH1 0x20 DUP11 ADD SWAP10 POP POP PUSH1 0x1 DUP2 ADD SWAP1 POP PUSH2 0x148E JUMP JUMPDEST POP DUP3 SWAP8 POP DUP8 SWAP6 POP POP POP POP POP POP SWAP3 SWAP2 POP POP JUMP JUMPDEST PUSH1 0x0 PUSH2 0x160 DUP4 ADD PUSH1 0x0 DUP4 ADD MLOAD DUP5 DUP3 SUB PUSH1 0x0 DUP7 ADD MSTORE PUSH2 0x14F6 DUP3 DUP3 PUSH2 0x1332 JUMP JUMPDEST SWAP2 POP POP PUSH1 0x20 DUP4 ADD MLOAD DUP5 DUP3 SUB PUSH1 0x20 DUP7 ADD MSTORE PUSH2 0x1510 DUP3 DUP3 PUSH2 0x1332 JUMP JUMPDEST SWAP2 POP POP PUSH1 0x40 DUP4 ADD MLOAD PUSH2 0x1525 PUSH1 0x40 DUP7 ADD DUP3 PUSH2 0x136B JUMP JUMPDEST POP PUSH1 0x60 DUP4 ADD MLOAD DUP5 DUP3 SUB PUSH1 0x60 DUP7 ADD MSTORE PUSH2 0x153D DUP3 DUP3 PUSH2 0x1332 JUMP JUMPDEST SWAP2 POP POP PUSH1 0x80 DUP4 ADD MLOAD DUP5 DUP3 SUB PUSH1 0x80 DUP7 ADD MSTORE PUSH2 0x1557 DUP3 DUP3 PUSH2 0x1332 JUMP JUMPDEST SWAP2 POP POP PUSH1 0xA0 DUP4 ADD MLOAD DUP5 DUP3 SUB PUSH1 0xA0 DUP7 ADD MSTORE PUSH2 0x1571 DUP3 DUP3 PUSH2 0x1332 JUMP JUMPDEST SWAP2 POP POP PUSH1 0xC0 DUP4 ADD MLOAD PUSH2 0x1586 PUSH1 0xC0 DUP7 ADD DUP3 PUSH2 0x137A JUMP JUMPDEST POP PUSH1 0xE0 DUP4 ADD MLOAD DUP5 DUP3 SUB PUSH1 0xE0 DUP7 ADD MSTORE PUSH2 0x159E DUP3 DUP3 PUSH2 0x1332 JUMP JUMPDEST SWAP2 POP POP PUSH2 0x100 DUP4 ADD MLOAD DUP5 DUP3 SUB PUSH2 0x100 DUP7 ADD MSTORE PUSH2 0x15BA DUP3 DUP3 PUSH2 0x1332 JUMP JUMPDEST SWAP2 POP POP PUSH2 0x120 DUP4 ADD MLOAD PUSH2 0x15D1 PUSH2 0x120 DUP7 ADD DUP3 PUSH2 0x1389 JUMP JUMPDEST POP PUSH2 0x140 DUP4 ADD MLOAD DUP5 DUP3 SUB PUSH2 0x140 DUP7 ADD MSTORE PUSH2 0x15EB DUP3 DUP3 PUSH2 0x1463 JUMP JUMPDEST SWAP2 POP POP DUP1 SWAP2 POP POP SWAP3 SWAP2 POP POP JUMP JUMPDEST PUSH1 0x0 PUSH1 0x20 DUP3 ADD SWAP1 POP DUP2 DUP2 SUB PUSH1 0x0 DUP4 ADD MSTORE PUSH2 0x1612 DUP2 DUP5 PUSH2 0x14D8 JUMP JUMPDEST SWAP1 POP SWAP3 SWAP2 POP POP JUMP JUMPDEST PUSH1 0x0 DUP2 SWAP1 POP SWAP3 SWAP2 POP POP JUMP JUMPDEST PUSH1 0x0 PUSH2 0x1630 DUP3 PUSH2 0x12EC JUMP JUMPDEST PUSH2 0x163A DUP2 DUP6 PUSH2 0x161A JUMP JUMPDEST SWAP4 POP PUSH2 0x164A DUP2 DUP6 PUSH1 0x20 DUP7 ADD PUSH2 0x1308 JUMP JUMPDEST DUP1 DUP5 ADD SWAP2 POP POP SWAP3 SWAP2 POP POP JUMP JUMPDEST PUSH1 0x0 PUSH2 0x1662 DUP3 DUP5 PUSH2 0x1625 JUMP JUMPDEST SWAP2 POP DUP2 SWAP1 POP SWAP3 SWAP2 POP POP JUMP JUMPDEST PUSH32 0x4E487B7100000000000000000000000000000000000000000000000000000000 PUSH1 0x0 MSTORE PUSH1 0x22 PUSH1 0x4 MSTORE PUSH1 0x24 PUSH1 0x0 REVERT JUMPDEST PUSH1 0x0 PUSH1 0x2 DUP3 DIV SWAP1 POP PUSH1 0x1 DUP3 AND DUP1 PUSH2 0x16B4 JUMPI PUSH1 0x7F DUP3 AND SWAP2 POP JUMPDEST PUSH1 0x20 DUP3 LT DUP2 SUB PUSH2 0x16C7 JUMPI PUSH2 0x16C6 PUSH2 0x166D JUMP JUMPDEST JUMPDEST POP SWAP2 SWAP1 POP JUMP JUMPDEST PUSH1 0x0 DUP2 SWAP1 POP DUP2 PUSH1 0x0 MSTORE PUSH1 0x20 PUSH1 0x0 KECCAK256 SWAP1 POP SWAP2 SWAP1 POP JUMP JUMPDEST PUSH1 0x0 PUSH1 0x20 PUSH1 0x1F DUP4 ADD DIV SWAP1 POP SWAP2 SWAP1 POP JUMP JUMPDEST PUSH1 0x0 DUP3 DUP3 SHL SWAP1 POP SWAP3 SWAP2 POP POP JUMP JUMPDEST PUSH1 0x0 PUSH1 0x8 DUP4 MUL PUSH2 0x172F PUSH32 0xFFFFFFFFFFFFFFFFFFFFFFFFFFFFFFFFFFFFFFFFFFFFFFFFFFFFFFFFFFFFFFFF DUP3 PUSH2 0x16F2 JUMP JUMPDEST PUSH2 0x1739 DUP7 DUP4 PUSH2 0x16F2 JUMP JUMPDEST SWAP6 POP DUP1 NOT DUP5 AND SWAP4 POP DUP1 DUP7 AND DUP5 OR SWAP3 POP POP POP SWAP4 SWAP3 POP POP POP JUMP JUMPDEST PUSH1 0x0 DUP2 SWAP1 POP SWAP2 SWAP1 POP JUMP JUMPDEST PUSH1 0x0 PUSH2 0x1776 PUSH2 0x1771 PUSH2 0x176C DUP5 PUSH2 0xF4C JUMP JUMPDEST PUSH2 0x1751 JUMP JUMPDEST PUSH2 0xF4C JUMP JUMPDEST SWAP1 POP SWAP2 SWAP1 POP JUMP JUMPDEST PUSH1 0x0 DUP2 SWAP1 POP SWAP2 SWAP1 POP JUMP JUMPDEST PUSH2 0x1790 DUP4 PUSH2 0x175B JUMP JUMPDEST PUSH2 0x17A4 PUSH2 0x179C DUP3 PUSH2 0x177D JUMP JUMPDEST DUP5 DUP5 SLOAD PUSH2 0x16FF JUMP JUMPDEST DUP3 SSTORE POP POP POP POP JUMP JUMPDEST PUSH1 0x0 SWAP1 JUMP JUMPDEST PUSH2 0x17B9 PUSH2 0x17AC JUMP JUMPDEST PUSH2 0x17C4 DUP2 DUP5 DUP5 PUSH2 0x1787 JUMP JUMPDEST POP POP POP JUMP JUMPDEST JUMPDEST DUP2 DUP2 LT ISZERO PUSH2 0x17E8 JUMPI PUSH2 0x17DD PUSH1 0x0 DUP3 PUSH2 0x17B1 JUMP JUMPDEST PUSH1 0x1 DUP2 ADD SWAP1 POP PUSH2 0x17CA JUMP JUMPDEST POP POP JUMP JUMPDEST PUSH1 0x1F DUP3 GT ISZERO PUSH2 0x182D JUMPI PUSH2 0x17FE DUP2 PUSH2 0x16CD JUMP JUMPDEST PUSH2 0x1807 DUP5 PUSH2 0x16E2 JUMP JUMPDEST DUP2 ADD PUSH1 0x20 DUP6 LT ISZERO PUSH2 0x1816 JUMPI DUP2 SWAP1 POP JUMPDEST PUSH2 0x182A PUSH2 0x1822 DUP6 PUSH2 0x16E2 JUMP JUMPDEST DUP4 ADD DUP3 PUSH2 0x17C9 JUMP JUMPDEST POP POP JUMPDEST POP POP POP JUMP JUMPDEST PUSH1 0x0 DUP3 DUP3 SHR SWAP1 POP SWAP3 SWAP2 POP POP JUMP JUMPDEST PUSH1 0x0 PUSH2 0x1850 PUSH1 0x0 NOT DUP5 PUSH1 0x8 MUL PUSH2 0x1832 JUMP JUMPDEST NOT DUP1 DUP4 AND SWAP2 POP POP SWAP3 SWAP2 POP POP JUMP JUMPDEST PUSH1 0x0 PUSH2 0x1869 DUP4 DUP4 PUSH2 0x183F JUMP JUMPDEST SWAP2 POP DUP3 PUSH1 0x2 MUL DUP3 OR SWAP1 POP SWAP3 SWAP2 POP POP JUMP JUMPDEST PUSH2 0x1882 DUP3 PUSH2 0x12EC JUMP JUMPDEST PUSH8 0xFFFFFFFFFFFFFFFF DUP2 GT ISZERO PUSH2 0x189B JUMPI PUSH2 0x189A PUSH2 0xE21 JUMP JUMPDEST JUMPDEST PUSH2 0x18A5 DUP3 SLOAD PUSH2 0x169C JUMP JUMPDEST PUSH2 0x18B0 DUP3 DUP3 DUP6 PUSH2 0x17EC JUMP JUMPDEST PUSH1 0x0 PUSH1 0x20 SWAP1 POP PUSH1 0x1F DUP4 GT PUSH1 0x1 DUP2 EQ PUSH2 0x18E3 JUMPI PUSH1 0x0 DUP5 ISZERO PUSH2 0x18D1 JUMPI DUP3 DUP8 ADD MLOAD SWAP1 POP JUMPDEST PUSH2 0x18DB DUP6 DUP3 PUSH2 0x185D JUMP JUMPDEST DUP7 SSTORE POP PUSH2 0x1943 JUMP JUMPDEST PUSH1 0x1F NOT DUP5 AND PUSH2 0x18F1 DUP7 PUSH2 0x16CD JUMP JUMPDEST PUSH1 0x0 JUMPDEST DUP3 DUP2 LT ISZERO PUSH2 0x1919 JUMPI DUP5 DUP10 ADD MLOAD DUP3 SSTORE PUSH1 0x1 DUP3 ADD SWAP2 POP PUSH1 0x20 DUP6 ADD SWAP5 POP PUSH1 0x20 DUP2 ADD SWAP1 POP PUSH2 0x18F4 JUMP JUMPDEST DUP7 DUP4 LT ISZERO PUSH2 0x1936 JUMPI DUP5 DUP10 ADD MLOAD PUSH2 0x1932 PUSH1 0x1F DUP10 AND DUP3 PUSH2 0x183F JUMP JUMPDEST DUP4 SSTORE POP JUMPDEST PUSH1 0x1 PUSH1 0x2 DUP9 MUL ADD DUP9 SSTORE POP POP POP JUMPDEST POP POP POP POP POP POP JUMP JUMPDEST PUSH1 0x0 DUP3 DUP3 MSTORE PUSH1 0x20 DUP3 ADD SWAP1 POP SWAP3 SWAP2 POP POP JUMP JUMPDEST PUSH32 0x6E6F20636172207769746820746869732056494E206E756D6265720000000000 PUSH1 0x0 DUP3 ADD MSTORE POP JUMP JUMPDEST PUSH1 0x0 PUSH2 0x1992 PUSH1 0x1B DUP4 PUSH2 0x194B JUMP JUMPDEST SWAP2 POP PUSH2 0x199D DUP3 PUSH2 0x195C JUMP JUMPDEST PUSH1 0x20 DUP3 ADD SWAP1 POP SWAP2 SWAP1 POP JUMP JUMPDEST PUSH1 0x0 PUSH1 0x20 DUP3 ADD SWAP1 POP DUP2 DUP2 SUB PUSH1 0x0 DUP4 ADD MSTORE PUSH2 0x19C1 DUP2 PUSH2 0x1985 JUMP JUMPDEST SWAP1 POP SWAP2 SWAP1 POP JUMP JUMPDEST PUSH32 0x4E487B7100000000000000000000000000000000000000000000000000000000 PUSH1 0x0 MSTORE PUSH1 0x11 PUSH1 0x4 MSTORE PUSH1 0x24 PUSH1 0x0 REVERT JUMPDEST PUSH1 0x0 PUSH2 0x1A02 DUP3 PUSH2 0xF4C JUMP JUMPDEST SWAP2 POP PUSH2 0x1A0D DUP4 PUSH2 0xF4C JUMP JUMPDEST SWAP3 POP DUP3 DUP3 ADD SWAP1 POP DUP1 DUP3 GT ISZERO PUSH2 0x1A25 JUMPI PUSH2 0x1A24 PUSH2 0x19C8 JUMP JUMPDEST JUMPDEST SWAP3 SWAP2 POP POP JUMP JUMPDEST PUSH1 0x0 DUP2 SLOAD SWAP1 POP PUSH2 0x1A3A DUP2 PUSH2 0x169C JUMP JUMPDEST SWAP1 POP SWAP2 SWAP1 POP JUMP JUMPDEST DUP2 DUP2 SUB PUSH2 0x1A4F JUMPI POP POP PUSH2 0x1B27 JUMP JUMPDEST PUSH2 0x1A58 DUP3 PUSH2 0x1A2B JUMP JUMPDEST PUSH8 0xFFFFFFFFFFFFFFFF DUP2 GT ISZERO PUSH2 0x1A71 JUMPI PUSH2 0x1A70 PUSH2 0xE21 JUMP JUMPDEST JUMPDEST PUSH2 0x1A7B DUP3 SLOAD PUSH2 0x169C JUMP JUMPDEST PUSH2 0x1A86 DUP3 DUP3 DUP6 PUSH2 0x17EC JUMP JUMPDEST PUSH1 0x0 PUSH1 0x1F DUP4 GT PUSH1 0x1 DUP2 EQ PUSH2 0x1AB5 JUMPI PUSH1 0x0 DUP5 ISZERO PUSH2 0x1AA3 JUMPI DUP3 DUP8 ADD SLOAD SWAP1 POP JUMPDEST PUSH2 0x1AAD DUP6 DUP3 PUSH2 0x185D JUMP JUMPDEST DUP7 SSTORE POP PUSH2 0x1B20 JUMP JUMPDEST PUSH1 0x1F NOT DUP5 AND PUSH2 0x1AC3 DUP8 PUSH2 0x16CD JUMP JUMPDEST SWAP7 POP PUSH2 0x1ACE DUP7 PUSH2 0x16CD JUMP JUMPDEST PUSH1 0x0 JUMPDEST DUP3 DUP2 LT ISZERO PUSH2 0x1AF6 JUMPI DUP5 DUP10 ADD SLOAD DUP3 SSTORE PUSH1 0x1 DUP3 ADD SWAP2 POP PUSH1 0x1 DUP6 ADD SWAP5 POP PUSH1 0x20 DUP2 ADD SWAP1 POP PUSH2 0x1AD1 JUMP JUMPDEST DUP7 DUP4 LT ISZERO PUSH2 0x1B13 JUMPI DUP5 DUP10 ADD SLOAD PUSH2 0x1B0F PUSH1 0x1F DUP10 AND DUP3 PUSH2 0x183F JUMP JUMPDEST DUP4 SSTORE POP JUMPDEST PUSH1 0x1 PUSH1 0x2 DUP9 MUL ADD DUP9 SSTORE POP POP POP JUMPDEST POP POP POP POP POP POP JUMPDEST JUMP JUMPDEST PUSH1 0x0 PUSH2 0x1B34 DUP3 PUSH2 0xF4C JUMP JUMPDEST SWAP2 POP PUSH2 0x1B3F DUP4 PUSH2 0xF4C JUMP JUMPDEST SWAP3 POP DUP3 DUP3 SUB SWAP1 POP DUP2 DUP2 GT ISZERO PUSH2 0x1B57 JUMPI PUSH2 0x1B56 PUSH2 0x19C8 JUMP JUMPDEST JUMPDEST SWAP3 SWAP2 POP POP JUMP JUMPDEST PUSH32 0x4E487B7100000000000000000000000000000000000000000000000000000000 PUSH1 0x0 MSTORE PUSH1 0x32 PUSH1 0x4 MSTORE PUSH1 0x24 PUSH1 0x0 REVERT JUMPDEST PUSH32 0x796F7520617265206E6F742074686520636172206F776E657200000000000000 PUSH1 0x0 DUP3 ADD MSTORE POP JUMP JUMPDEST PUSH1 0x0 PUSH2 0x1BC2 PUSH1 0x19 DUP4 PUSH2 0x194B JUMP JUMPDEST SWAP2 POP PUSH2 0x1BCD DUP3 PUSH2 0x1B8C JUMP JUMPDEST PUSH1 0x20 DUP3 ADD SWAP1 POP SWAP2 SWAP1 POP JUMP JUMPDEST PUSH1 0x0 PUSH1 0x20 DUP3 ADD SWAP1 POP DUP2 DUP2 SUB PUSH1 0x0 DUP4 ADD MSTORE PUSH2 0x1BF1 DUP2 PUSH2 0x1BB5 JUMP JUMPDEST SWAP1 POP SWAP2 SWAP1 POP JUMP INVALID LOG2 PUSH5 0x6970667358 0x22 SLT KECCAK256 0xD7 0xB1 SLT DUP2 ORIGIN 0xE8 RETURNDATASIZE 0xE6 CALLVALUE PUSH14 0x2E3D1B65050B236D9935E2BEA6D1 PUSH2 0x435C 0xD8 CALLVALUE 0xD8 SWAP6 SWAP1 PUSH5 0x736F6C6343 STOP ADDMOD SGT STOP CALLER "},"methodIdentifiers":{"add_penalty(string,string,uint256)":"1cd30e4b","get_my_car_info(string)":"c5320a82","pay_penalties(string,uint256)":"342bbdd5","set_car_info(string,string,uint256,string,string,string,uint8,string,string,address)":"0a45d962"}}}}}