{
  "_format": "hh-sol-artifact-1",
  "contractName": "CarOwner",
  "sourceName": "contracts/CarOwner.sol",
  "abi": [
    {
      "inputs": [],
      "stateMutability": "nonpayable",
      "type": "constructor"
    },
    {
      "inputs": [
        {
          "internalType": "string",
          "name": "_vin",
          "type": "string"
        },
        {
          "internalType": "string",
          "name": "_offence",
          "type": "string"
        },
        {
          "internalType": "uint256",
          "name": "_fine",
          "type": "uint256"
        }
      ],
      "name": "add_penalty",
      "outputs": [],
      "stateMutability": "nonpayable",
      "type": "function"
    },
    {
      "inputs": [
        {
          "internalType": "string",
          "name": "_vin",
          "type": "string"
        }
      ],
      "name": "get_my_car_info",
      "outputs": [
        {
          "components": [
            {
              "internalType": "string",
              "name": "manufacturer",
              "type": "string"
            },
            {
              "internalType": "string",
              "name": "model",
              "type": "string"
            },
            {
              "internalType": "uint256",
              "name": "year",
              "type": "uint256"
            },
            {
              "internalType": "string",
              "name": "fuel",
              "type": "string"
            },
            {
              "internalType": "string",
              "name": "transmission",
              "type": "string"
            },
            {
              "internalType": "string",
              "name": "color",
              "type": "string"
            },
            {
              "internalType": "uint8",
              "name": "doors",
              "type": "uint8"
            },
            {
              "internalType": "string",
              "name": "VIN",
              "type": "string"
            },
            {
              "internalType": "string",
              "name": "stock_number",
              "type": "string"
            },
            {
              "internalType": "address",
              "name": "owner_address",
              "type": "address"
            },
            {
              "components": [
                {
                  "internalType": "string",
                  "name": "offence",
                  "type": "string"
                },
                {
                  "internalType": "uint256",
                  "name": "fine",
                  "type": "uint256"
                },
                {
                  "internalType": "bool",
                  "name": "payed",
                  "type": "bool"
                },
                {
                  "internalType": "uint256",
                  "name": "id",
                  "type": "uint256"
                }
              ],
              "internalType": "struct CarOwner.Penalties[]",
              "name": "myPenalties",
              "type": "tuple[]"
            }
          ],
          "internalType": "struct CarOwner.Car",
          "name": "",
          "type": "tuple"
        }
      ],
      "stateMutability": "view",
      "type": "function"
    },
    {
      "inputs": [
        {
          "internalType": "string",
          "name": "_vin",
          "type": "string"
        },
        {
          "internalType": "uint256",
          "name": "_id",
          "type": "uint256"
        }
      ],
      "name": "pay_penalties",
      "outputs": [],
      "stateMutability": "payable",
      "type": "function"
    },
    {
      "inputs": [
        {
          "internalType": "string",
          "name": "_manufacturer",
          "type": "string"
        },
        {
          "internalType": "string",
          "name": "_model",
          "type": "string"
        },
        {
          "internalType": "uint256",
          "name": "_year",
          "type": "uint256"
        },
        {
          "internalType": "string",
          "name": "_fuel",
          "type": "string"
        },
        {
          "internalType": "string",
          "name": "_transmission",
          "type": "string"
        },
        {
          "internalType": "string",
          "name": "_color",
          "type": "string"
        },
        {
          "internalType": "uint8",
          "name": "_doors",
          "type": "uint8"
        },
        {
          "internalType": "string",
          "name": "_VIN",
          "type": "string"
        },
        {
          "internalType": "string",
          "name": "_stock_number",
          "type": "string"
        },
        {
          "internalType": "address",
          "name": "_owner_address",
          "type": "address"
        }
      ],
      "name": "set_car_info",
      "outputs": [],
      "stateMutability": "nonpayable",
      "type": "function"
    }
  ],
  "bytecode": "0x608060405234801561001057600080fd5b50336000806101000a81548173ffffffffffffffffffffffffffffffffffffffff021916908373ffffffffffffffffffffffffffffffffffffffff160217905550611c2e806100606000396000f3fe60806040526004361061003f5760003560e01c80630a45d962146100445780631cd30e4b1461006d578063342bbdd514610096578063c5320a82146100b2575b600080fd5b34801561005057600080fd5b5061006b60048036038101906100669190611019565b6100ef565b005b34801561007957600080fd5b50610094600480360381019061008f91906111bc565b61025d565b005b6100b060048036038101906100ab9190611247565b610483565b005b3480156100be57600080fd5b506100d960048036038101906100d491906112a3565b610624565b6040516100e691906115f8565b60405180910390f35b60008054906101000a900473ffffffffffffffffffffffffffffffffffffffff1673ffffffffffffffffffffffffffffffffffffffff163373ffffffffffffffffffffffffffffffffffffffff161461014757600080fd5b60006005846040516101599190611656565b90815260200160405180910390209050818160090160006101000a81548173ffffffffffffffffffffffffffffffffffffffff021916908373ffffffffffffffffffffffffffffffffffffffff1602179055508a8160000190816101bd9190611879565b50898160010190816101cf9190611879565b50888160020181905550878160030190816101ea9190611879565b50868160040190816101fc9190611879565b508581600501908161020e9190611879565b50848160060160006101000a81548160ff021916908360ff1602179055508381600701908161023d9190611879565b508281600801908161024f9190611879565b505050505050505050505050565b60008054906101000a900473ffffffffffffffffffffffffffffffffffffffff1673ffffffffffffffffffffffffffffffffffffffff163373ffffffffffffffffffffffffffffffffffffffff16146102b557600080fd5b60006005846040516102c79190611656565b90815260200160405180910390209050600073ffffffffffffffffffffffffffffffffffffffff168160090160009054906101000a900473ffffffffffffffffffffffffffffffffffffffff1673ffffffffffffffffffffffffffffffffffffffff160361036a576040517f08c379a0000000000000000000000000000000000000000000000000000000008152600401610361906119a8565b60405180910390fd5b6000600182600a018054905061038091906119f7565b9050604051806080016040528085815260200184815260200160001515815260200182815250600160008201518160000190816103bd9190611879565b506020820151816001015560408201518160020160006101000a81548160ff0219169083151502179055506060820151816003015590505081600a0160019080600181540180825580915050600190039060005260206000209060040201600090919091909150600082018160000190816104389190611a41565b50600182015481600101556002820160009054906101000a900460ff168160020160006101000a81548160ff0219169083151502179055506003820154816003015550505050505050565b60006005836040516104959190611656565b90815260200160405180910390209050600073ffffffffffffffffffffffffffffffffffffffff168160090160009054906101000a900473ffffffffffffffffffffffffffffffffffffffff1673ffffffffffffffffffffffffffffffffffffffff1603610538576040517f08c379a000000000000000000000000000000000000000000000000000000000815260040161052f906119a8565b60405180910390fd5b8060090160009054906101000a900473ffffffffffffffffffffffffffffffffffffffff1673ffffffffffffffffffffffffffffffffffffffff163373ffffffffffffffffffffffffffffffffffffffff161461059457600080fd5b80600a016001836105a59190611b29565b815481106105b6576105b5611b5d565b5b90600052602060002090600402016001015434146105d357600080fd5b600181600a016001846105e69190611b29565b815481106105f7576105f6611b5d565b5b906000526020600020906004020160020160006101000a81548160ff021916908315150217905550505050565b61062c610d7f565b600060058360405161063e9190611656565b90815260200160405180910390209050600073ffffffffffffffffffffffffffffffffffffffff168160090160009054906101000a900473ffffffffffffffffffffffffffffffffffffffff1673ffffffffffffffffffffffffffffffffffffffff16036106e1576040517f08c379a00000000000000000000000000000000000000000000000000000000081526004016106d8906119a8565b60405180910390fd5b8060090160009054906101000a900473ffffffffffffffffffffffffffffffffffffffff1673ffffffffffffffffffffffffffffffffffffffff163373ffffffffffffffffffffffffffffffffffffffff16148061078a575060008054906101000a900473ffffffffffffffffffffffffffffffffffffffff1673ffffffffffffffffffffffffffffffffffffffff163373ffffffffffffffffffffffffffffffffffffffff16145b15610d3f5780604051806101600160405290816000820180546107ac9061169c565b80601f01602080910402602001604051908101604052809291908181526020018280546107d89061169c565b80156108255780601f106107fa57610100808354040283529160200191610825565b820191906000526020600020905b81548152906001019060200180831161080857829003601f168201915b5050505050815260200160018201805461083e9061169c565b80601f016020809104026020016040519081016040528092919081815260200182805461086a9061169c565b80156108b75780601f1061088c576101008083540402835291602001916108b7565b820191906000526020600020905b81548152906001019060200180831161089a57829003601f168201915b50505050508152602001600282015481526020016003820180546108da9061169c565b80601f01602080910402602001604051908101604052809291908181526020018280546109069061169c565b80156109535780601f1061092857610100808354040283529160200191610953565b820191906000526020600020905b81548152906001019060200180831161093657829003601f168201915b5050505050815260200160048201805461096c9061169c565b80601f01602080910402602001604051908101604052809291908181526020018280546109989061169c565b80156109e55780601f106109ba576101008083540402835291602001916109e5565b820191906000526020600020905b8154815290600101906020018083116109c857829003601f168201915b505050505081526020016005820180546109fe9061169c565b80601f0160208091040260200160405190810160405280929190818152602001828054610a2a9061169c565b8015610a775780601f10610a4c57610100808354040283529160200191610a77565b820191906000526020600020905b815481529060010190602001808311610a5a57829003601f168201915b505050505081526020016006820160009054906101000a900460ff1660ff1660ff168152602001600782018054610aad9061169c565b80601f0160208091040260200160405190810160405280929190818152602001828054610ad99061169c565b8015610b265780601f10610afb57610100808354040283529160200191610b26565b820191906000526020600020905b815481529060010190602001808311610b0957829003601f168201915b50505050508152602001600882018054610b3f9061169c565b80601f0160208091040260200160405190810160405280929190818152602001828054610b6b9061169c565b8015610bb85780601f10610b8d57610100808354040283529160200191610bb8565b820191906000526020600020905b815481529060010190602001808311610b9b57829003601f168201915b505050505081526020016009820160009054906101000a900473ffffffffffffffffffffffffffffffffffffffff1673ffffffffffffffffffffffffffffffffffffffff1673ffffffffffffffffffffffffffffffffffffffff168152602001600a8201805480602002602001604051908101604052809291908181526020016000905b82821015610d2f5783829060005260206000209060040201604051806080016040529081600082018054610c6f9061169c565b80601f0160208091040260200160405190810160405280929190818152602001828054610c9b9061169c565b8015610ce85780601f10610cbd57610100808354040283529160200191610ce8565b820191906000526020600020905b815481529060010190602001808311610ccb57829003601f168201915b50505050508152602001600182015481526020016002820160009054906101000a900460ff1615151515815260200160038201548152505081526020019060010190610c3c565b5050505081525050915050610d7a565b6040517f08c379a0000000000000000000000000000000000000000000000000000000008152600401610d7190611bd8565b60405180910390fd5b919050565b604051806101600160405280606081526020016060815260200160008152602001606081526020016060815260200160608152602001600060ff1681526020016060815260200160608152602001600073ffffffffffffffffffffffffffffffffffffffff168152602001606081525090565b6000604051905090565b600080fd5b600080fd5b600080fd5b600080fd5b6000601f19601f8301169050919050565b7f4e487b7100000000000000000000000000000000000000000000000000000000600052604160045260246000fd5b610e5982610e10565b810181811067ffffffffffffffff82111715610e7857610e77610e21565b5b80604052505050565b6000610e8b610df2565b9050610e978282610e50565b919050565b600067ffffffffffffffff821115610eb757610eb6610e21565b5b610ec082610e10565b9050602081019050919050565b82818337600083830152505050565b6000610eef610eea84610e9c565b610e81565b905082815260208101848484011115610f0b57610f0a610e0b565b5b610f16848285610ecd565b509392505050565b600082601f830112610f3357610f32610e06565b5b8135610f43848260208601610edc565b91505092915050565b6000819050919050565b610f5f81610f4c565b8114610f6a57600080fd5b50565b600081359050610f7c81610f56565b92915050565b600060ff82169050919050565b610f9881610f82565b8114610fa357600080fd5b50565b600081359050610fb581610f8f565b92915050565b600073ffffffffffffffffffffffffffffffffffffffff82169050919050565b6000610fe682610fbb565b9050919050565b610ff681610fdb565b811461100157600080fd5b50565b60008135905061101381610fed565b92915050565b6000806000806000806000806000806101408b8d03121561103d5761103c610dfc565b5b60008b013567ffffffffffffffff81111561105b5761105a610e01565b5b6110678d828e01610f1e565b9a505060208b013567ffffffffffffffff81111561108857611087610e01565b5b6110948d828e01610f1e565b99505060406110a58d828e01610f6d565b98505060608b013567ffffffffffffffff8111156110c6576110c5610e01565b5b6110d28d828e01610f1e565b97505060808b013567ffffffffffffffff8111156110f3576110f2610e01565b5b6110ff8d828e01610f1e565b96505060a08b013567ffffffffffffffff8111156111205761111f610e01565b5b61112c8d828e01610f1e565b95505060c061113d8d828e01610fa6565b94505060e08b013567ffffffffffffffff81111561115e5761115d610e01565b5b61116a8d828e01610f1e565b9350506101008b013567ffffffffffffffff81111561118c5761118b610e01565b5b6111988d828e01610f1e565b9250506101206111aa8d828e01611004565b9150509295989b9194979a5092959850565b6000806000606084860312156111d5576111d4610dfc565b5b600084013567ffffffffffffffff8111156111f3576111f2610e01565b5b6111ff86828701610f1e565b935050602084013567ffffffffffffffff8111156112205761121f610e01565b5b61122c86828701610f1e565b925050604061123d86828701610f6d565b9150509250925092565b6000806040838503121561125e5761125d610dfc565b5b600083013567ffffffffffffffff81111561127c5761127b610e01565b5b61128885828601610f1e565b925050602061129985828601610f6d565b9150509250929050565b6000602082840312156112b9576112b8610dfc565b5b600082013567ffffffffffffffff8111156112d7576112d6610e01565b5b6112e384828501610f1e565b91505092915050565b600081519050919050565b600082825260208201905092915050565b60005b8381101561132657808201518184015260208101905061130b565b60008484015250505050565b600061133d826112ec565b61134781856112f7565b9350611357818560208601611308565b61136081610e10565b840191505092915050565b61137481610f4c565b82525050565b61138381610f82565b82525050565b61139281610fdb565b82525050565b600081519050919050565b600082825260208201905092915050565b6000819050602082019050919050565b60008115159050919050565b6113d9816113c4565b82525050565b600060808301600083015184820360008601526113fc8282611332565b9150506020830151611411602086018261136b565b50604083015161142460408601826113d0565b506060830151611437606086018261136b565b508091505092915050565b600061144e83836113df565b905092915050565b6000602082019050919050565b600061146e82611398565b61147881856113a3565b93508360208202850161148a856113b4565b8060005b858110156114c657848403895281516114a78582611442565b94506114b283611456565b925060208a0199505060018101905061148e565b50829750879550505050505092915050565b60006101608301600083015184820360008601526114f68282611332565b915050602083015184820360208601526115108282611332565b9150506040830151611525604086018261136b565b506060830151848203606086015261153d8282611332565b915050608083015184820360808601526115578282611332565b91505060a083015184820360a08601526115718282611332565b91505060c083015161158660c086018261137a565b5060e083015184820360e086015261159e8282611332565b9150506101008301518482036101008601526115ba8282611332565b9150506101208301516115d1610120860182611389565b506101408301518482036101408601526115eb8282611463565b9150508091505092915050565b6000602082019050818103600083015261161281846114d8565b905092915050565b600081905092915050565b6000611630826112ec565b61163a818561161a565b935061164a818560208601611308565b80840191505092915050565b60006116628284611625565b915081905092915050565b7f4e487b7100000000000000000000000000000000000000000000000000000000600052602260045260246000fd5b600060028204905060018216806116b457607f821691505b6020821081036116c7576116c661166d565b5b50919050565b60008190508160005260206000209050919050565b60006020601f8301049050919050565b600082821b905092915050565b60006008830261172f7fffffffffffffffffffffffffffffffffffffffffffffffffffffffffffffffff826116f2565b61173986836116f2565b95508019841693508086168417925050509392505050565b6000819050919050565b600061177661177161176c84610f4c565b611751565b610f4c565b9050919050565b6000819050919050565b6117908361175b565b6117a461179c8261177d565b8484546116ff565b825550505050565b600090565b6117b96117ac565b6117c4818484611787565b505050565b5b818110156117e8576117dd6000826117b1565b6001810190506117ca565b5050565b601f82111561182d576117fe816116cd565b611807846116e2565b81016020851015611816578190505b61182a611822856116e2565b8301826117c9565b50505b505050565b600082821c905092915050565b600061185060001984600802611832565b1980831691505092915050565b6000611869838361183f565b9150826002028217905092915050565b611882826112ec565b67ffffffffffffffff81111561189b5761189a610e21565b5b6118a5825461169c565b6118b08282856117ec565b600060209050601f8311600181146118e357600084156118d1578287015190505b6118db858261185d565b865550611943565b601f1984166118f1866116cd565b60005b82811015611919578489015182556001820191506020850194506020810190506118f4565b868310156119365784890151611932601f89168261183f565b8355505b6001600288020188555050505b505050505050565b600082825260208201905092915050565b7f6e6f20636172207769746820746869732056494e206e756d6265720000000000600082015250565b6000611992601b8361194b565b915061199d8261195c565b602082019050919050565b600060208201905081810360008301526119c181611985565b9050919050565b7f4e487b7100000000000000000000000000000000000000000000000000000000600052601160045260246000fd5b6000611a0282610f4c565b9150611a0d83610f4c565b9250828201905080821115611a2557611a246119c8565b5b92915050565b600081549050611a3a8161169c565b9050919050565b818103611a4f575050611b27565b611a5882611a2b565b67ffffffffffffffff811115611a7157611a70610e21565b5b611a7b825461169c565b611a868282856117ec565b6000601f831160018114611ab55760008415611aa3578287015490505b611aad858261185d565b865550611b20565b601f198416611ac3876116cd565b9650611ace866116cd565b60005b82811015611af657848901548255600182019150600185019450602081019050611ad1565b86831015611b135784890154611b0f601f89168261183f565b8355505b6001600288020188555050505b5050505050505b565b6000611b3482610f4c565b9150611b3f83610f4c565b9250828203905081811115611b5757611b566119c8565b5b92915050565b7f4e487b7100000000000000000000000000000000000000000000000000000000600052603260045260246000fd5b7f796f7520617265206e6f742074686520636172206f776e657200000000000000600082015250565b6000611bc260198361194b565b9150611bcd82611b8c565b602082019050919050565b60006020820190508181036000830152611bf181611bb5565b905091905056fea2646970667358221220d7b1128132e83de6346d2e3d1b65050b236d9935e2bea6d161435cd834d8959064736f6c63430008130033",
  "linkReferences": {},
  "deployedLinkReferences": {}
}